{
  "transactions": [
    {
      "hash": "0x75460d146293e44bbf85036413feaa570e8b057a1194a239ea3ef7a4c01d5187",
      "transactionType": "CALL",
      "contractName": null,
      "contractAddress": "0x513d2c968e48d5bb7683266f51bfb56d0a0e5641",
      "function": "approve(address,uint256)",
      "arguments": [
        "0x513d2c968e48d5Bb7683266f51bFB56d0A0e5641",
        "1000"
      ],
      "transaction": {
        "from": "0x8fe205351ade3b32245ffcba2f58141fa3b0a20f",
        "to": "0x513d2c968e48d5bb7683266f51bfb56d0a0e5641",
        "gas": "0x1ce25",
        "value": "0x0",
        "input": "0x095ea7b3000000000000000000000000513d2c968e48d5bb7683266f51bfb56d0a0e564100000000000000000000000000000000000000000000000000000000000003e8",
        "nonce": "0x113",
        "chainId": "0xaa36a7"
      },
      "additionalContracts": [],
      "isFixedGasLimit": false
    },
    {
      "hash": "0x3d12b29d756b722c8cf18508472fe8ce8055a0f054e6cea44afa369ee4a71899",
      "transactionType": "CALL",
      "contractName": null,
      "contractAddress": "0x513d2c968e48d5bb7683266f51bfb56d0a0e5641",
      "function": "swap(address,address,uint256)",
      "arguments": [
        "0x705F7b297B47a688c96CbD5b7C7c9cBB1CdFEd3B",
        "0x9df5CE9E769cA57aA5b06F649D0011fBF3222DC9",
        "10"
      ],
      "transaction": {
        "from": "0x8fe205351ade3b32245ffcba2f58141fa3b0a20f",
        "to": "0x513d2c968e48d5bb7683266f51bfb56d0a0e5641",
        "gas": "0x1a00e",
        "value": "0x0",
        "input": "0xdf791e50000000000000000000000000705f7b297b47a688c96cbd5b7c7c9cbb1cdfed3b0000000000000000000000009df5ce9e769ca57aa5b06f649d0011fbf3222dc9000000000000000000000000000000000000000000000000000000000000000a",
        "nonce": "0x114",
        "chainId": "0xaa36a7"
      },
      "additionalContracts": [],
      "isFixedGasLimit": false
    },
    {
      "hash": "0x4cecfc26b2f6680a127262c73c594eeab16e9eaca73cd3994eda31dacb0d6ec6",
      "transactionType": "CALL",
      "contractName": null,
      "contractAddress": "0x513d2c968e48d5bb7683266f51bfb56d0a0e5641",
      "function": "swap(address,address,uint256)",
      "arguments": [
        "0x9df5CE9E769cA57aA5b06F649D0011fBF3222DC9",
        "0x705F7b297B47a688c96CbD5b7C7c9cBB1CdFEd3B",
        "20"
      ],
      "transaction": {
        "from": "0x8fe205351ade3b32245ffcba2f58141fa3b0a20f",
        "to": "0x513d2c968e48d5bb7683266f51bfb56d0a0e5641",
        "gas": "0x1ea8c",
        "value": "0x0",
        "input": "0xdf791e500000000000000000000000009df5ce9e769ca57aa5b06f649d0011fbf3222dc9000000000000000000000000705f7b297b47a688c96cbd5b7c7c9cbb1cdfed3b0000000000000000000000000000000000000000000000000000000000000014",
        "nonce": "0x115",
        "chainId": "0xaa36a7"
      },
      "additionalContracts": [],
      "isFixedGasLimit": false
    },
    {
      "hash": "0x7fe8ed00a833f438dbf406c3eb4899a50452953e45790859a452eb73786d6c01",
      "transactionType": "CALL",
      "contractName": null,
      "contractAddress": "0x513d2c968e48d5bb7683266f51bfb56d0a0e5641",
      "function": "swap(address,address,uint256)",
      "arguments": [
        "0x705F7b297B47a688c96CbD5b7C7c9cBB1CdFEd3B",
        "0x9df5CE9E769cA57aA5b06F649D0011fBF3222DC9",
        "24"
      ],
      "transaction": {
        "from": "0x8fe205351ade3b32245ffcba2f58141fa3b0a20f",
        "to": "0x513d2c968e48d5bb7683266f51bfb56d0a0e5641",
        "gas": "0x1e9dd",
        "value": "0x0",
        "input": "0xdf791e50000000000000000000000000705f7b297b47a688c96cbd5b7c7c9cbb1cdfed3b0000000000000000000000009df5ce9e769ca57aa5b06f649d0011fbf3222dc90000000000000000000000000000000000000000000000000000000000000018",
        "nonce": "0x116",
        "chainId": "0xaa36a7"
      },
      "additionalContracts": [],
      "isFixedGasLimit": false
    },
    {
      "hash": "0xb75db848235116263454cfdea7ec9ec3e82e5edb22fa46edf8826a82bfde6a32",
      "transactionType": "CALL",
      "contractName": null,
      "contractAddress": "0x513d2c968e48d5bb7683266f51bfb56d0a0e5641",
      "function": "swap(address,address,uint256)",
      "arguments": [
        "0x9df5CE9E769cA57aA5b06F649D0011fBF3222DC9",
        "0x705F7b297B47a688c96CbD5b7C7c9cBB1CdFEd3B",
        "30"
      ],
      "transaction": {
        "from": "0x8fe205351ade3b32245ffcba2f58141fa3b0a20f",
        "to": "0x513d2c968e48d5bb7683266f51bfb56d0a0e5641",
        "gas": "0x1ea8c",
        "value": "0x0",
        "input": "0xdf791e500000000000000000000000009df5ce9e769ca57aa5b06f649d0011fbf3222dc9000000000000000000000000705f7b297b47a688c96cbd5b7c7c9cbb1cdfed3b000000000000000000000000000000000000000000000000000000000000001e",
        "nonce": "0x117",
        "chainId": "0xaa36a7"
      },
      "additionalContracts": [],
      "isFixedGasLimit": false
    },
    {
      "hash": "0xe92fb21d2054aad23bdc5a5bac2e724560c4c7bd6baed04251f18d60540ab59b",
      "transactionType": "CALL",
      "contractName": null,
      "contractAddress": "0x513d2c968e48d5bb7683266f51bfb56d0a0e5641",
      "function": "swap(address,address,uint256)",
      "arguments": [
        "0x705F7b297B47a688c96CbD5b7C7c9cBB1CdFEd3B",
        "0x9df5CE9E769cA57aA5b06F649D0011fBF3222DC9",
        "41"
      ],
      "transaction": {
        "from": "0x8fe205351ade3b32245ffcba2f58141fa3b0a20f",
        "to": "0x513d2c968e48d5bb7683266f51bfb56d0a0e5641",
        "gas": "0x1e9dd",
        "value": "0x0",
        "input": "0xdf791e50000000000000000000000000705f7b297b47a688c96cbd5b7c7c9cbb1cdfed3b0000000000000000000000009df5ce9e769ca57aa5b06f649d0011fbf3222dc90000000000000000000000000000000000000000000000000000000000000029",
        "nonce": "0x118",
        "chainId": "0xaa36a7"
      },
      "additionalContracts": [],
      "isFixedGasLimit": false
    },
    {
      "hash": "0x332b17774a425203397f674dc9b87b3d5e73b14e8bfab422b4ea7c3cd0ccd647",
      "transactionType": "CALL",
      "contractName": null,
      "contractAddress": "0x513d2c968e48d5bb7683266f51bfb56d0a0e5641",
      "function": "swap(address,address,uint256)",
      "arguments": [
        "0x9df5CE9E769cA57aA5b06F649D0011fBF3222DC9",
        "0x705F7b297B47a688c96CbD5b7C7c9cBB1CdFEd3B",
        "45"
      ],
      "transaction": {
        "from": "0x8fe205351ade3b32245ffcba2f58141fa3b0a20f",
        "to": "0x513d2c968e48d5bb7683266f51bfb56d0a0e5641",
        "gas": "0x1ea8c",
        "value": "0x0",
        "input": "0xdf791e500000000000000000000000009df5ce9e769ca57aa5b06f649d0011fbf3222dc9000000000000000000000000705f7b297b47a688c96cbd5b7c7c9cbb1cdfed3b000000000000000000000000000000000000000000000000000000000000002d",
        "nonce": "0x119",
        "chainId": "0xaa36a7"
      },
      "additionalContracts": [],
      "isFixedGasLimit": false
    }
  ],
  "receipts": [
    {
      "status": "0x1",
      "cumulativeGasUsed": "0xd626dd",
      "logs": [
        {
          "address": "0x705f7b297b47a688c96cbd5b7c7c9cbb1cdfed3b",
          "topics": [
            "0x8c5be1e5ebec7d5bd14f71427d1e84f3dd0314c0f7b2291e5b200ac8c7c3b925",
            "0x0000000000000000000000008fe205351ade3b32245ffcba2f58141fa3b0a20f",
            "0x000000000000000000000000513d2c968e48d5bb7683266f51bfb56d0a0e5641"
          ],
          "data": "0x00000000000000000000000000000000000000000000000000000000000003e8",
          "blockHash": "0x37c46aab6e449bbe9d10778911194d1f6a87bd43fbb94e8c3780560636485022",
          "blockNumber": "0x85749f",
          "blockTimestamp": "0x6871ff80",
          "transactionHash": "0x75460d146293e44bbf85036413feaa570e8b057a1194a239ea3ef7a4c01d5187",
          "transactionIndex": "0xa6",
          "logIndex": "0xfe",
          "removed": false
        },
        {
          "address": "0x9df5ce9e769ca57aa5b06f649d0011fbf3222dc9",
          "topics": [
            "0x8c5be1e5ebec7d5bd14f71427d1e84f3dd0314c0f7b2291e5b200ac8c7c3b925",
            "0x0000000000000000000000008fe205351ade3b32245ffcba2f58141fa3b0a20f",
            "0x000000000000000000000000513d2c968e48d5bb7683266f51bfb56d0a0e5641"
          ],
          "data": "0x00000000000000000000000000000000000000000000000000000000000003e8",
          "blockHash": "0x37c46aab6e449bbe9d10778911194d1f6a87bd43fbb94e8c3780560636485022",
          "blockNumber": "0x85749f",
          "blockTimestamp": "0x6871ff80",
          "transactionHash": "0x75460d146293e44bbf85036413feaa570e8b057a1194a239ea3ef7a4c01d5187",
          "transactionIndex": "0xa6",
          "logIndex": "0xff",
          "removed": false
        }
      ],
      "logsBloom": "0x00000000000000000000000000000000000000000000000000000000000040000000000000000000000000000000000000000000000000000000000000200000000000000000000000000000000000000000000000000000000000000010000000000000000000000200000000000000000000000440000000000000000000000000008004000000000000000000000000000040000000000000000000000000020000000000000000000000000000000000000000000000000000000000000000000000000000000000000000000000001000000000000001000000000000000010000000000000000000000000000000000000000080000000000000040000",
      "type": "0x2",
      "transactionHash": "0x75460d146293e44bbf85036413feaa570e8b057a1194a239ea3ef7a4c01d5187",
      "transactionIndex": "0xa6",
      "blockHash": "0x37c46aab6e449bbe9d10778911194d1f6a87bd43fbb94e8c3780560636485022",
      "blockNumber": "0x85749f",
      "gasUsed": "0x14e96",
      "effectiveGasPrice": "0xf6e19",
      "from": "0x8fe205351ade3b32245ffcba2f58141fa3b0a20f",
      "to": "0x513d2c968e48d5bb7683266f51bfb56d0a0e5641",
      "contractAddress": null
    },
    {
      "status": "0x1",
      "cumulativeGasUsed": "0xd829a0",
      "logs": [
        {
          "address": "0x705f7b297b47a688c96cbd5b7c7c9cbb1cdfed3b",
          "topics": [
            "0x8c5be1e5ebec7d5bd14f71427d1e84f3dd0314c0f7b2291e5b200ac8c7c3b925",
            "0x0000000000000000000000008fe205351ade3b32245ffcba2f58141fa3b0a20f",
            "0x000000000000000000000000513d2c968e48d5bb7683266f51bfb56d0a0e5641"
          ],
          "data": "0x00000000000000000000000000000000000000000000000000000000000003de",
          "blockHash": "0x37c46aab6e449bbe9d10778911194d1f6a87bd43fbb94e8c3780560636485022",
          "blockNumber": "0x85749f",
          "blockTimestamp": "0x6871ff80",
          "transactionHash": "0x3d12b29d756b722c8cf18508472fe8ce8055a0f054e6cea44afa369ee4a71899",
          "transactionIndex": "0xa9",
          "logIndex": "0x101",
          "removed": false
        },
        {
          "address": "0x705f7b297b47a688c96cbd5b7c7c9cbb1cdfed3b",
          "topics": [
            "0xddf252ad1be2c89b69c2b068fc378daa952ba7f163c4a11628f55a4df523b3ef",
            "0x0000000000000000000000008fe205351ade3b32245ffcba2f58141fa3b0a20f",
            "0x000000000000000000000000513d2c968e48d5bb7683266f51bfb56d0a0e5641"
          ],
          "data": "0x000000000000000000000000000000000000000000000000000000000000000a",
          "blockHash": "0x37c46aab6e449bbe9d10778911194d1f6a87bd43fbb94e8c3780560636485022",
          "blockNumber": "0x85749f",
          "blockTimestamp": "0x6871ff80",
          "transactionHash": "0x3d12b29d756b722c8cf18508472fe8ce8055a0f054e6cea44afa369ee4a71899",
          "transactionIndex": "0xa9",
          "logIndex": "0x102",
          "removed": false
        },
        {
          "address": "0x9df5ce9e769ca57aa5b06f649d0011fbf3222dc9",
          "topics": [
            "0x8c5be1e5ebec7d5bd14f71427d1e84f3dd0314c0f7b2291e5b200ac8c7c3b925",
            "0x000000000000000000000000513d2c968e48d5bb7683266f51bfb56d0a0e5641",
            "0x000000000000000000000000513d2c968e48d5bb7683266f51bfb56d0a0e5641"
          ],
          "data": "0x000000000000000000000000000000000000000000000000000000000000000a",
          "blockHash": "0x37c46aab6e449bbe9d10778911194d1f6a87bd43fbb94e8c3780560636485022",
          "blockNumber": "0x85749f",
          "blockTimestamp": "0x6871ff80",
          "transactionHash": "0x3d12b29d756b722c8cf18508472fe8ce8055a0f054e6cea44afa369ee4a71899",
          "transactionIndex": "0xa9",
          "logIndex": "0x103",
          "removed": false
        },
        {
          "address": "0x9df5ce9e769ca57aa5b06f649d0011fbf3222dc9",
          "topics": [
            "0x8c5be1e5ebec7d5bd14f71427d1e84f3dd0314c0f7b2291e5b200ac8c7c3b925",
            "0x000000000000000000000000513d2c968e48d5bb7683266f51bfb56d0a0e5641",
            "0x000000000000000000000000513d2c968e48d5bb7683266f51bfb56d0a0e5641"
          ],
          "data": "0x0000000000000000000000000000000000000000000000000000000000000000",
          "blockHash": "0x37c46aab6e449bbe9d10778911194d1f6a87bd43fbb94e8c3780560636485022",
          "blockNumber": "0x85749f",
          "blockTimestamp": "0x6871ff80",
          "transactionHash": "0x3d12b29d756b722c8cf18508472fe8ce8055a0f054e6cea44afa369ee4a71899",
          "transactionIndex": "0xa9",
          "logIndex": "0x104",
          "removed": false
        },
        {
          "address": "0x9df5ce9e769ca57aa5b06f649d0011fbf3222dc9",
          "topics": [
            "0xddf252ad1be2c89b69c2b068fc378daa952ba7f163c4a11628f55a4df523b3ef",
            "0x000000000000000000000000513d2c968e48d5bb7683266f51bfb56d0a0e5641",
            "0x0000000000000000000000008fe205351ade3b32245ffcba2f58141fa3b0a20f"
          ],
          "data": "0x000000000000000000000000000000000000000000000000000000000000000a",
          "blockHash": "0x37c46aab6e449bbe9d10778911194d1f6a87bd43fbb94e8c3780560636485022",
          "blockNumber": "0x85749f",
          "blockTimestamp": "0x6871ff80",
          "transactionHash": "0x3d12b29d756b722c8cf18508472fe8ce8055a0f054e6cea44afa369ee4a71899",
          "transactionIndex": "0xa9",
          "logIndex": "0x105",
          "removed": false
        }
      ],
      "logsBloom": "0x00000000000000000000000000000000000000000000000000000000000040000000000000000000000000000000000000000000000000000000000000200000000000000000000000000008000000000000000000000000000000000010000000000000000000000200000000000000000000000440000000000010000000000000008004000000000000000000000000000040000000000000000000000000020000000000000000000000000000000000000000000000000000000000000000000002000000000000000000000000001000000000000001000000000000000010000000000000000000000000000000000000000080000000000000040000",
      "type": "0x2",
      "transactionHash": "0x3d12b29d756b722c8cf18508472fe8ce8055a0f054e6cea44afa369ee4a71899",
      "transactionIndex": "0xa9",
      "blockHash": "0x37c46aab6e449bbe9d10778911194d1f6a87bd43fbb94e8c3780560636485022",
      "blockNumber": "0x85749f",
      "gasUsed": "0x12d38",
      "effectiveGasPrice": "0xf6e19",
      "from": "0x8fe205351ade3b32245ffcba2f58141fa3b0a20f",
      "to": "0x513d2c968e48d5bb7683266f51bfb56d0a0e5641",
      "contractAddress": null
    },
    {
      "status": "0x1",
      "cumulativeGasUsed": "0xd98cc6",
      "logs": [
        {
          "address": "0x9df5ce9e769ca57aa5b06f649d0011fbf3222dc9",
          "topics": [
            "0x8c5be1e5ebec7d5bd14f71427d1e84f3dd0314c0f7b2291e5b200ac8c7c3b925",
            "0x0000000000000000000000008fe205351ade3b32245ffcba2f58141fa3b0a20f",
            "0x000000000000000000000000513d2c968e48d5bb7683266f51bfb56d0a0e5641"
          ],
          "data": "0x00000000000000000000000000000000000000000000000000000000000003d4",
          "blockHash": "0x37c46aab6e449bbe9d10778911194d1f6a87bd43fbb94e8c3780560636485022",
          "blockNumber": "0x85749f",
          "blockTimestamp": "0x6871ff80",
          "transactionHash": "0x4cecfc26b2f6680a127262c73c594eeab16e9eaca73cd3994eda31dacb0d6ec6",
          "transactionIndex": "0xaa",
          "logIndex": "0x106",
          "removed": false
        },
        {
          "address": "0x9df5ce9e769ca57aa5b06f649d0011fbf3222dc9",
          "topics": [
            "0xddf252ad1be2c89b69c2b068fc378daa952ba7f163c4a11628f55a4df523b3ef",
            "0x0000000000000000000000008fe205351ade3b32245ffcba2f58141fa3b0a20f",
            "0x000000000000000000000000513d2c968e48d5bb7683266f51bfb56d0a0e5641"
          ],
          "data": "0x0000000000000000000000000000000000000000000000000000000000000014",
          "blockHash": "0x37c46aab6e449bbe9d10778911194d1f6a87bd43fbb94e8c3780560636485022",
          "blockNumber": "0x85749f",
          "blockTimestamp": "0x6871ff80",
          "transactionHash": "0x4cecfc26b2f6680a127262c73c594eeab16e9eaca73cd3994eda31dacb0d6ec6",
          "transactionIndex": "0xaa",
          "logIndex": "0x107",
          "removed": false
        },
        {
          "address": "0x705f7b297b47a688c96cbd5b7c7c9cbb1cdfed3b",
          "topics": [
            "0x8c5be1e5ebec7d5bd14f71427d1e84f3dd0314c0f7b2291e5b200ac8c7c3b925",
            "0x000000000000000000000000513d2c968e48d5bb7683266f51bfb56d0a0e5641",
            "0x000000000000000000000000513d2c968e48d5bb7683266f51bfb56d0a0e5641"
          ],
          "data": "0x0000000000000000000000000000000000000000000000000000000000000018",
          "blockHash": "0x37c46aab6e449bbe9d10778911194d1f6a87bd43fbb94e8c3780560636485022",
          "blockNumber": "0x85749f",
          "blockTimestamp": "0x6871ff80",
          "transactionHash": "0x4cecfc26b2f6680a127262c73c594eeab16e9eaca73cd3994eda31dacb0d6ec6",
          "transactionIndex": "0xaa",
          "logIndex": "0x108",
          "removed": false
        },
        {
          "address": "0x705f7b297b47a688c96cbd5b7c7c9cbb1cdfed3b",
          "topics": [
            "0x8c5be1e5ebec7d5bd14f71427d1e84f3dd0314c0f7b2291e5b200ac8c7c3b925",
            "0x000000000000000000000000513d2c968e48d5bb7683266f51bfb56d0a0e5641",
            "0x000000000000000000000000513d2c968e48d5bb7683266f51bfb56d0a0e5641"
          ],
          "data": "0x0000000000000000000000000000000000000000000000000000000000000000",
          "blockHash": "0x37c46aab6e449bbe9d10778911194d1f6a87bd43fbb94e8c3780560636485022",
          "blockNumber": "0x85749f",
          "blockTimestamp": "0x6871ff80",
          "transactionHash": "0x4cecfc26b2f6680a127262c73c594eeab16e9eaca73cd3994eda31dacb0d6ec6",
          "transactionIndex": "0xaa",
          "logIndex": "0x109",
          "removed": false
        },
        {
          "address": "0x705f7b297b47a688c96cbd5b7c7c9cbb1cdfed3b",
          "topics": [
            "0xddf252ad1be2c89b69c2b068fc378daa952ba7f163c4a11628f55a4df523b3ef",
            "0x000000000000000000000000513d2c968e48d5bb7683266f51bfb56d0a0e5641",
            "0x0000000000000000000000008fe205351ade3b32245ffcba2f58141fa3b0a20f"
          ],
          "data": "0x0000000000000000000000000000000000000000000000000000000000000018",
          "blockHash": "0x37c46aab6e449bbe9d10778911194d1f6a87bd43fbb94e8c3780560636485022",
          "blockNumber": "0x85749f",
          "blockTimestamp": "0x6871ff80",
          "transactionHash": "0x4cecfc26b2f6680a127262c73c594eeab16e9eaca73cd3994eda31dacb0d6ec6",
          "transactionIndex": "0xaa",
          "logIndex": "0x10a",
          "removed": false
        }
      ],
      "logsBloom": "0x00000000000000000000000000000000000000000000000000000000000040000000000000000000000000000000000000000000000000000000000000200000000000000000000000000008000000000000000000000000000000000010000000000000000000000200000000000000000000000440000000000010000000000000008004000000000000000000000000000040000000000000000000000000020000000000000000000000000000000000000000000000000000000000000000000002000000000000000000000000001000000000000001000000000000000010000000000000000000000000000000000000000080000000000000040000",
      "type": "0x2",
      "transactionHash": "0x4cecfc26b2f6680a127262c73c594eeab16e9eaca73cd3994eda31dacb0d6ec6",
      "transactionIndex": "0xaa",
      "blockHash": "0x37c46aab6e449bbe9d10778911194d1f6a87bd43fbb94e8c3780560636485022",
      "blockNumber": "0x85749f",
      "gasUsed": "0x16326",
      "effectiveGasPrice": "0xf6e19",
      "from": "0x8fe205351ade3b32245ffcba2f58141fa3b0a20f",
      "to": "0x513d2c968e48d5bb7683266f51bfb56d0a0e5641",
      "contractAddress": null
    },
    {
      "status": "0x1",
      "cumulativeGasUsed": "0xdaef6e",
      "logs": [
        {
          "address": "0x705f7b297b47a688c96cbd5b7c7c9cbb1cdfed3b",
          "topics": [
            "0x8c5be1e5ebec7d5bd14f71427d1e84f3dd0314c0f7b2291e5b200ac8c7c3b925",
            "0x0000000000000000000000008fe205351ade3b32245ffcba2f58141fa3b0a20f",
            "0x000000000000000000000000513d2c968e48d5bb7683266f51bfb56d0a0e5641"
          ],
          "data": "0x00000000000000000000000000000000000000000000000000000000000003c6",
          "blockHash": "0x37c46aab6e449bbe9d10778911194d1f6a87bd43fbb94e8c3780560636485022",
          "blockNumber": "0x85749f",
          "blockTimestamp": "0x6871ff80",
          "transactionHash": "0x7fe8ed00a833f438dbf406c3eb4899a50452953e45790859a452eb73786d6c01",
          "transactionIndex": "0xab",
          "logIndex": "0x10b",
          "removed": false
        },
        {
          "address": "0x705f7b297b47a688c96cbd5b7c7c9cbb1cdfed3b",
          "topics": [
            "0xddf252ad1be2c89b69c2b068fc378daa952ba7f163c4a11628f55a4df523b3ef",
            "0x0000000000000000000000008fe205351ade3b32245ffcba2f58141fa3b0a20f",
            "0x000000000000000000000000513d2c968e48d5bb7683266f51bfb56d0a0e5641"
          ],
          "data": "0x0000000000000000000000000000000000000000000000000000000000000018",
          "blockHash": "0x37c46aab6e449bbe9d10778911194d1f6a87bd43fbb94e8c3780560636485022",
          "blockNumber": "0x85749f",
          "blockTimestamp": "0x6871ff80",
          "transactionHash": "0x7fe8ed00a833f438dbf406c3eb4899a50452953e45790859a452eb73786d6c01",
          "transactionIndex": "0xab",
          "logIndex": "0x10c",
          "removed": false
        },
        {
          "address": "0x9df5ce9e769ca57aa5b06f649d0011fbf3222dc9",
          "topics": [
            "0x8c5be1e5ebec7d5bd14f71427d1e84f3dd0314c0f7b2291e5b200ac8c7c3b925",
            "0x000000000000000000000000513d2c968e48d5bb7683266f51bfb56d0a0e5641",
            "0x000000000000000000000000513d2c968e48d5bb7683266f51bfb56d0a0e5641"
          ],
          "data": "0x000000000000000000000000000000000000000000000000000000000000001e",
          "blockHash": "0x37c46aab6e449bbe9d10778911194d1f6a87bd43fbb94e8c3780560636485022",
          "blockNumber": "0x85749f",
          "blockTimestamp": "0x6871ff80",
          "transactionHash": "0x7fe8ed00a833f438dbf406c3eb4899a50452953e45790859a452eb73786d6c01",
          "transactionIndex": "0xab",
          "logIndex": "0x10d",
          "removed": false
        },
        {
          "address": "0x9df5ce9e769ca57aa5b06f649d0011fbf3222dc9",
          "topics": [
            "0x8c5be1e5ebec7d5bd14f71427d1e84f3dd0314c0f7b2291e5b200ac8c7c3b925",
            "0x000000000000000000000000513d2c968e48d5bb7683266f51bfb56d0a0e5641",
            "0x000000000000000000000000513d2c968e48d5bb7683266f51bfb56d0a0e5641"
          ],
          "data": "0x0000000000000000000000000000000000000000000000000000000000000000",
          "blockHash": "0x37c46aab6e449bbe9d10778911194d1f6a87bd43fbb94e8c3780560636485022",
          "blockNumber": "0x85749f",
          "blockTimestamp": "0x6871ff80",
          "transactionHash": "0x7fe8ed00a833f438dbf406c3eb4899a50452953e45790859a452eb73786d6c01",
          "transactionIndex": "0xab",
          "logIndex": "0x10e",
          "removed": false
        },
        {
          "address": "0x9df5ce9e769ca57aa5b06f649d0011fbf3222dc9",
          "topics": [
            "0xddf252ad1be2c89b69c2b068fc378daa952ba7f163c4a11628f55a4df523b3ef",
            "0x000000000000000000000000513d2c968e48d5bb7683266f51bfb56d0a0e5641",
            "0x0000000000000000000000008fe205351ade3b32245ffcba2f58141fa3b0a20f"
          ],
          "data": "0x000000000000000000000000000000000000000000000000000000000000001e",
          "blockHash": "0x37c46aab6e449bbe9d10778911194d1f6a87bd43fbb94e8c3780560636485022",
          "blockNumber": "0x85749f",
          "blockTimestamp": "0x6871ff80",
          "transactionHash": "0x7fe8ed00a833f438dbf406c3eb4899a50452953e45790859a452eb73786d6c01",
          "transactionIndex": "0xab",
          "logIndex": "0x10f",
          "removed": false
        }
      ],
      "logsBloom": "0x00000000000000000000000000000000000000000000000000000000000040000000000000000000000000000000000000000000000000000000000000200000000000000000000000000008000000000000000000000000000000000010000000000000000000000200000000000000000000000440000000000010000000000000008004000000000000000000000000000040000000000000000000000000020000000000000000000000000000000000000000000000000000000000000000000002000000000000000000000000001000000000000001000000000000000010000000000000000000000000000000000000000080000000000000040000",
      "type": "0x2",
      "transactionHash": "0x7fe8ed00a833f438dbf406c3eb4899a50452953e45790859a452eb73786d6c01",
      "transactionIndex": "0xab",
      "blockHash": "0x37c46aab6e449bbe9d10778911194d1f6a87bd43fbb94e8c3780560636485022",
      "blockNumber": "0x85749f",
      "gasUsed": "0x162a8",
      "effectiveGasPrice": "0xf6e19",
      "from": "0x8fe205351ade3b32245ffcba2f58141fa3b0a20f",
      "to": "0x513d2c968e48d5bb7683266f51bfb56d0a0e5641",
      "contractAddress": null
    },
    {
      "status": "0x1",
      "cumulativeGasUsed": "0xdcd392",
      "logs": [
        {
          "address": "0x9df5ce9e769ca57aa5b06f649d0011fbf3222dc9",
          "topics": [
            "0x8c5be1e5ebec7d5bd14f71427d1e84f3dd0314c0f7b2291e5b200ac8c7c3b925",
            "0x0000000000000000000000008fe205351ade3b32245ffcba2f58141fa3b0a20f",
            "0x000000000000000000000000513d2c968e48d5bb7683266f51bfb56d0a0e5641"
          ],
          "data": "0x00000000000000000000000000000000000000000000000000000000000003b6",
          "blockHash": "0x37c46aab6e449bbe9d10778911194d1f6a87bd43fbb94e8c3780560636485022",
          "blockNumber": "0x85749f",
          "blockTimestamp": "0x6871ff80",
          "transactionHash": "0xb75db848235116263454cfdea7ec9ec3e82e5edb22fa46edf8826a82bfde6a32",
          "transactionIndex": "0xad",
          "logIndex": "0x111",
          "removed": false
        },
        {
          "address": "0x9df5ce9e769ca57aa5b06f649d0011fbf3222dc9",
          "topics": [
            "0xddf252ad1be2c89b69c2b068fc378daa952ba7f163c4a11628f55a4df523b3ef",
            "0x0000000000000000000000008fe205351ade3b32245ffcba2f58141fa3b0a20f",
            "0x000000000000000000000000513d2c968e48d5bb7683266f51bfb56d0a0e5641"
          ],
          "data": "0x000000000000000000000000000000000000000000000000000000000000001e",
          "blockHash": "0x37c46aab6e449bbe9d10778911194d1f6a87bd43fbb94e8c3780560636485022",
          "blockNumber": "0x85749f",
          "blockTimestamp": "0x6871ff80",
          "transactionHash": "0xb75db848235116263454cfdea7ec9ec3e82e5edb22fa46edf8826a82bfde6a32",
          "transactionIndex": "0xad",
          "logIndex": "0x112",
          "removed": false
        },
        {
          "address": "0x705f7b297b47a688c96cbd5b7c7c9cbb1cdfed3b",
          "topics": [
            "0x8c5be1e5ebec7d5bd14f71427d1e84f3dd0314c0f7b2291e5b200ac8c7c3b925",
            "0x000000000000000000000000513d2c968e48d5bb7683266f51bfb56d0a0e5641",
            "0x000000000000000000000000513d2c968e48d5bb7683266f51bfb56d0a0e5641"
          ],
          "data": "0x0000000000000000000000000000000000000000000000000000000000000029",
          "blockHash": "0x37c46aab6e449bbe9d10778911194d1f6a87bd43fbb94e8c3780560636485022",
          "blockNumber": "0x85749f",
          "blockTimestamp": "0x6871ff80",
          "transactionHash": "0xb75db848235116263454cfdea7ec9ec3e82e5edb22fa46edf8826a82bfde6a32",
          "transactionIndex": "0xad",
          "logIndex": "0x113",
          "removed": false
        },
        {
          "address": "0x705f7b297b47a688c96cbd5b7c7c9cbb1cdfed3b",
          "topics": [
            "0x8c5be1e5ebec7d5bd14f71427d1e84f3dd0314c0f7b2291e5b200ac8c7c3b925",
            "0x000000000000000000000000513d2c968e48d5bb7683266f51bfb56d0a0e5641",
            "0x000000000000000000000000513d2c968e48d5bb7683266f51bfb56d0a0e5641"
          ],
          "data": "0x0000000000000000000000000000000000000000000000000000000000000000",
          "blockHash": "0x37c46aab6e449bbe9d10778911194d1f6a87bd43fbb94e8c3780560636485022",
          "blockNumber": "0x85749f",
          "blockTimestamp": "0x6871ff80",
          "transactionHash": "0xb75db848235116263454cfdea7ec9ec3e82e5edb22fa46edf8826a82bfde6a32",
          "transactionIndex": "0xad",
          "logIndex": "0x114",
          "removed": false
        },
        {
          "address": "0x705f7b297b47a688c96cbd5b7c7c9cbb1cdfed3b",
          "topics": [
            "0xddf252ad1be2c89b69c2b068fc378daa952ba7f163c4a11628f55a4df523b3ef",
            "0x000000000000000000000000513d2c968e48d5bb7683266f51bfb56d0a0e5641",
            "0x0000000000000000000000008fe205351ade3b32245ffcba2f58141fa3b0a20f"
          ],
          "data": "0x0000000000000000000000000000000000000000000000000000000000000029",
          "blockHash": "0x37c46aab6e449bbe9d10778911194d1f6a87bd43fbb94e8c3780560636485022",
          "blockNumber": "0x85749f",
          "blockTimestamp": "0x6871ff80",
          "transactionHash": "0xb75db848235116263454cfdea7ec9ec3e82e5edb22fa46edf8826a82bfde6a32",
          "transactionIndex": "0xad",
          "logIndex": "0x115",
          "removed": false
        }
      ],
      "logsBloom": "0x00000000000000000000000000000000000000000000000000000000000040000000000000000000000000000000000000000000000000000000000000200000000000000000000000000008000000000000000000000000000000000010000000000000000000000200000000000000000000000440000000000010000000000000008004000000000000000000000000000040000000000000000000000000020000000000000000000000000000000000000000000000000000000000000000000002000000000000000000000000001000000000000001000000000000000010000000000000000000000000000000000000000080000000000000040000",
      "type": "0x2",
      "transactionHash": "0xb75db848235116263454cfdea7ec9ec3e82e5edb22fa46edf8826a82bfde6a32",
      "transactionIndex": "0xad",
      "blockHash": "0x37c46aab6e449bbe9d10778911194d1f6a87bd43fbb94e8c3780560636485022",
      "blockNumber": "0x85749f",
      "gasUsed": "0x16326",
      "effectiveGasPrice": "0xf6e19",
      "from": "0x8fe205351ade3b32245ffcba2f58141fa3b0a20f",
      "to": "0x513d2c968e48d5bb7683266f51bfb56d0a0e5641",
      "contractAddress": null
    },
    {
      "status": "0x1",
      "cumulativeGasUsed": "0xde363a",
      "logs": [
        {
          "address": "0x705f7b297b47a688c96cbd5b7c7c9cbb1cdfed3b",
          "topics": [
            "0x8c5be1e5ebec7d5bd14f71427d1e84f3dd0314c0f7b2291e5b200ac8c7c3b925",
            "0x0000000000000000000000008fe205351ade3b32245ffcba2f58141fa3b0a20f",
            "0x000000000000000000000000513d2c968e48d5bb7683266f51bfb56d0a0e5641"
          ],
          "data": "0x000000000000000000000000000000000000000000000000000000000000039d",
          "blockHash": "0x37c46aab6e449bbe9d10778911194d1f6a87bd43fbb94e8c3780560636485022",
          "blockNumber": "0x85749f",
          "blockTimestamp": "0x6871ff80",
          "transactionHash": "0xe92fb21d2054aad23bdc5a5bac2e724560c4c7bd6baed04251f18d60540ab59b",
          "transactionIndex": "0xae",
          "logIndex": "0x116",
          "removed": false
        },
        {
          "address": "0x705f7b297b47a688c96cbd5b7c7c9cbb1cdfed3b",
          "topics": [
            "0xddf252ad1be2c89b69c2b068fc378daa952ba7f163c4a11628f55a4df523b3ef",
            "0x0000000000000000000000008fe205351ade3b32245ffcba2f58141fa3b0a20f",
            "0x000000000000000000000000513d2c968e48d5bb7683266f51bfb56d0a0e5641"
          ],
          "data": "0x0000000000000000000000000000000000000000000000000000000000000029",
          "blockHash": "0x37c46aab6e449bbe9d10778911194d1f6a87bd43fbb94e8c3780560636485022",
          "blockNumber": "0x85749f",
          "blockTimestamp": "0x6871ff80",
          "transactionHash": "0xe92fb21d2054aad23bdc5a5bac2e724560c4c7bd6baed04251f18d60540ab59b",
          "transactionIndex": "0xae",
          "logIndex": "0x117",
          "removed": false
        },
        {
          "address": "0x9df5ce9e769ca57aa5b06f649d0011fbf3222dc9",
          "topics": [
            "0x8c5be1e5ebec7d5bd14f71427d1e84f3dd0314c0f7b2291e5b200ac8c7c3b925",
            "0x000000000000000000000000513d2c968e48d5bb7683266f51bfb56d0a0e5641",
            "0x000000000000000000000000513d2c968e48d5bb7683266f51bfb56d0a0e5641"
          ],
          "data": "0x0000000000000000000000000000000000000000000000000000000000000041",
          "blockHash": "0x37c46aab6e449bbe9d10778911194d1f6a87bd43fbb94e8c3780560636485022",
          "blockNumber": "0x85749f",
          "blockTimestamp": "0x6871ff80",
          "transactionHash": "0xe92fb21d2054aad23bdc5a5bac2e724560c4c7bd6baed04251f18d60540ab59b",
          "transactionIndex": "0xae",
          "logIndex": "0x118",
          "removed": false
        },
        {
          "address": "0x9df5ce9e769ca57aa5b06f649d0011fbf3222dc9",
          "topics": [
            "0x8c5be1e5ebec7d5bd14f71427d1e84f3dd0314c0f7b2291e5b200ac8c7c3b925",
            "0x000000000000000000000000513d2c968e48d5bb7683266f51bfb56d0a0e5641",
            "0x000000000000000000000000513d2c968e48d5bb7683266f51bfb56d0a0e5641"
          ],
          "data": "0x0000000000000000000000000000000000000000000000000000000000000000",
          "blockHash": "0x37c46aab6e449bbe9d10778911194d1f6a87bd43fbb94e8c3780560636485022",
          "blockNumber": "0x85749f",
          "blockTimestamp": "0x6871ff80",
          "transactionHash": "0xe92fb21d2054aad23bdc5a5bac2e724560c4c7bd6baed04251f18d60540ab59b",
          "transactionIndex": "0xae",
          "logIndex": "0x119",
          "removed": false
        },
        {
          "address": "0x9df5ce9e769ca57aa5b06f649d0011fbf3222dc9",
          "topics": [
            "0xddf252ad1be2c89b69c2b068fc378daa952ba7f163c4a11628f55a4df523b3ef",
            "0x000000000000000000000000513d2c968e48d5bb7683266f51bfb56d0a0e5641",
            "0x0000000000000000000000008fe205351ade3b32245ffcba2f58141fa3b0a20f"
          ],
          "data": "0x0000000000000000000000000000000000000000000000000000000000000041",
          "blockHash": "0x37c46aab6e449bbe9d10778911194d1f6a87bd43fbb94e8c3780560636485022",
          "blockNumber": "0x85749f",
          "blockTimestamp": "0x6871ff80",
          "transactionHash": "0xe92fb21d2054aad23bdc5a5bac2e724560c4c7bd6baed04251f18d60540ab59b",
          "transactionIndex": "0xae",
          "logIndex": "0x11a",
          "removed": false
        }
      ],
      "logsBloom": "0x00000000000000000000000000000000000000000000000000000000000040000000000000000000000000000000000000000000000000000000000000200000000000000000000000000008000000000000000000000000000000000010000000000000000000000200000000000000000000000440000000000010000000000000008004000000000000000000000000000040000000000000000000000000020000000000000000000000000000000000000000000000000000000000000000000002000000000000000000000000001000000000000001000000000000000010000000000000000000000000000000000000000080000000000000040000",
      "type": "0x2",
      "transactionHash": "0xe92fb21d2054aad23bdc5a5bac2e724560c4c7bd6baed04251f18d60540ab59b",
      "transactionIndex": "0xae",
      "blockHash": "0x37c46aab6e449bbe9d10778911194d1f6a87bd43fbb94e8c3780560636485022",
      "blockNumber": "0x85749f",
      "gasUsed": "0x162a8",
      "effectiveGasPrice": "0xf6e19",
      "from": "0x8fe205351ade3b32245ffcba2f58141fa3b0a20f",
      "to": "0x513d2c968e48d5bb7683266f51bfb56d0a0e5641",
      "contractAddress": null
    },
    {
      "status": "0x1",
      "cumulativeGasUsed": "0xdf9960",
      "logs": [
        {
          "address": "0x9df5ce9e769ca57aa5b06f649d0011fbf3222dc9",
          "topics": [
            "0x8c5be1e5ebec7d5bd14f71427d1e84f3dd0314c0f7b2291e5b200ac8c7c3b925",
            "0x0000000000000000000000008fe205351ade3b32245ffcba2f58141fa3b0a20f",
            "0x000000000000000000000000513d2c968e48d5bb7683266f51bfb56d0a0e5641"
          ],
          "data": "0x0000000000000000000000000000000000000000000000000000000000000389",
          "blockHash": "0x37c46aab6e449bbe9d10778911194d1f6a87bd43fbb94e8c3780560636485022",
          "blockNumber": "0x85749f",
          "blockTimestamp": "0x6871ff80",
          "transactionHash": "0x332b17774a425203397f674dc9b87b3d5e73b14e8bfab422b4ea7c3cd0ccd647",
          "transactionIndex": "0xaf",
          "logIndex": "0x11b",
          "removed": false
        },
        {
          "address": "0x9df5ce9e769ca57aa5b06f649d0011fbf3222dc9",
          "topics": [
            "0xddf252ad1be2c89b69c2b068fc378daa952ba7f163c4a11628f55a4df523b3ef",
            "0x0000000000000000000000008fe205351ade3b32245ffcba2f58141fa3b0a20f",
            "0x000000000000000000000000513d2c968e48d5bb7683266f51bfb56d0a0e5641"
          ],
          "data": "0x000000000000000000000000000000000000000000000000000000000000002d",
          "blockHash": "0x37c46aab6e449bbe9d10778911194d1f6a87bd43fbb94e8c3780560636485022",
          "blockNumber": "0x85749f",
          "blockTimestamp": "0x6871ff80",
          "transactionHash": "0x332b17774a425203397f674dc9b87b3d5e73b14e8bfab422b4ea7c3cd0ccd647",
          "transactionIndex": "0xaf",
          "logIndex": "0x11c",
          "removed": false
        },
        {
          "address": "0x705f7b297b47a688c96cbd5b7c7c9cbb1cdfed3b",
          "topics": [
            "0x8c5be1e5ebec7d5bd14f71427d1e84f3dd0314c0f7b2291e5b200ac8c7c3b925",
            "0x000000000000000000000000513d2c968e48d5bb7683266f51bfb56d0a0e5641",
            "0x000000000000000000000000513d2c968e48d5bb7683266f51bfb56d0a0e5641"
          ],
          "data": "0x000000000000000000000000000000000000000000000000000000000000006e",
          "blockHash": "0x37c46aab6e449bbe9d10778911194d1f6a87bd43fbb94e8c3780560636485022",
          "blockNumber": "0x85749f",
          "blockTimestamp": "0x6871ff80",
          "transactionHash": "0x332b17774a425203397f674dc9b87b3d5e73b14e8bfab422b4ea7c3cd0ccd647",
          "transactionIndex": "0xaf",
          "logIndex": "0x11d",
          "removed": false
        },
        {
          "address": "0x705f7b297b47a688c96cbd5b7c7c9cbb1cdfed3b",
          "topics": [
            "0x8c5be1e5ebec7d5bd14f71427d1e84f3dd0314c0f7b2291e5b200ac8c7c3b925",
            "0x000000000000000000000000513d2c968e48d5bb7683266f51bfb56d0a0e5641",
            "0x000000000000000000000000513d2c968e48d5bb7683266f51bfb56d0a0e5641"
          ],
          "data": "0x0000000000000000000000000000000000000000000000000000000000000000",
          "blockHash": "0x37c46aab6e449bbe9d10778911194d1f6a87bd43fbb94e8c3780560636485022",
          "blockNumber": "0x85749f",
          "blockTimestamp": "0x6871ff80",
          "transactionHash": "0x332b17774a425203397f674dc9b87b3d5e73b14e8bfab422b4ea7c3cd0ccd647",
          "transactionIndex": "0xaf",
          "logIndex": "0x11e",
          "removed": false
        },
        {
          "address": "0x705f7b297b47a688c96cbd5b7c7c9cbb1cdfed3b",
          "topics": [
            "0xddf252ad1be2c89b69c2b068fc378daa952ba7f163c4a11628f55a4df523b3ef",
            "0x000000000000000000000000513d2c968e48d5bb7683266f51bfb56d0a0e5641",
            "0x0000000000000000000000008fe205351ade3b32245ffcba2f58141fa3b0a20f"
          ],
          "data": "0x000000000000000000000000000000000000000000000000000000000000006e",
          "blockHash": "0x37c46aab6e449bbe9d10778911194d1f6a87bd43fbb94e8c3780560636485022",
          "blockNumber": "0x85749f",
          "blockTimestamp": "0x6871ff80",
          "transactionHash": "0x332b17774a425203397f674dc9b87b3d5e73b14e8bfab422b4ea7c3cd0ccd647",
          "transactionIndex": "0xaf",
          "logIndex": "0x11f",
          "removed": false
        }
      ],
      "logsBloom": "0x00000000000000000000000000000000000000000000000000000000000040000000000000000000000000000000000000000000000000000000000000200000000000000000000000000008000000000000000000000000000000000010000000000000000000000200000000000000000000000440000000000010000000000000008004000000000000000000000000000040000000000000000000000000020000000000000000000000000000000000000000000000000000000000000000000002000000000000000000000000001000000000000001000000000000000010000000000000000000000000000000000000000080000000000000040000",
      "type": "0x2",
      "transactionHash": "0x332b17774a425203397f674dc9b87b3d5e73b14e8bfab422b4ea7c3cd0ccd647",
      "transactionIndex": "0xaf",
      "blockHash": "0x37c46aab6e449bbe9d10778911194d1f6a87bd43fbb94e8c3780560636485022",
      "blockNumber": "0x85749f",
      "gasUsed": "0x16326",
      "effectiveGasPrice": "0xf6e19",
      "from": "0x8fe205351ade3b32245ffcba2f58141fa3b0a20f",
      "to": "0x513d2c968e48d5bb7683266f51bfb56d0a0e5641",
      "contractAddress": null
    }
  ],
  "libraries": [],
  "pending": [],
  "returns": {},
  "timestamp": 1752301441,
  "chain": 11155111,
  "commit": "c8ac35f"
}