{
  "transactions": [
    {
      "hash": "0x446ef366ef077ab83778ac957d29aeed135103646f732b23aae2316fef4521c3",
      "transactionType": "CREATE",
      "contractName": "Attack",
      "contractAddress": "0xf0cc78353f3cff2669049446d97355404be22b54",
      "function": null,
      "arguments": null,
      "transaction": {
        "from": "0x8fe205351ade3b32245ffcba2f58141fa3b0a20f",
        "gas": "0x3af68",
        "value": "0x0",
        "input": "0x6080604052348015600e575f5ffd5b506102658061001c5f395ff3fe608060405234801561000f575f5ffd5b506004361061004a575f3560e01c80631f457cb51461004e5780633850c7bd1461006c5780633beb26c41461008a5780638da5cb5b146100a6575b5f5ffd5b6100566100c4565b60405161006391906101b4565b60405180910390f35b6100746100e9565b60405161008191906101b4565b60405180910390f35b6100a4600480360381019061009f9190610204565b61010d565b005b6100ae610150565b6040516100bb91906101b4565b60405180910390f35b60015f9054906101000a900473ffffffffffffffffffffffffffffffffffffffff1681565b5f5f9054906101000a900473ffffffffffffffffffffffffffffffffffffffff1681565b8060025f6101000a81548173ffffffffffffffffffffffffffffffffffffffff021916908373ffffffffffffffffffffffffffffffffffffffff16021790555050565b60025f9054906101000a900473ffffffffffffffffffffffffffffffffffffffff1681565b5f73ffffffffffffffffffffffffffffffffffffffff82169050919050565b5f61019e82610175565b9050919050565b6101ae81610194565b82525050565b5f6020820190506101c75f8301846101a5565b92915050565b5f5ffd5b5f819050919050565b6101e3816101d1565b81146101ed575f5ffd5b50565b5f813590506101fe816101da565b92915050565b5f60208284031215610219576102186101cd565b5b5f610226848285016101f0565b9150509291505056fea26469706673582212204a1cc2dc57e02e0dea27b47b6143a3abba5332f356429935b76020783223601c64736f6c634300081d0033",
        "nonce": "0xbe",
        "chainId": "0xaa36a7"
      },
      "additionalContracts": [],
      "isFixedGasLimit": false
    },
    {
      "hash": "0x776d9a7a052603408810821477606867ea29fa28cbafc911f07b7560a9bb5206",
      "transactionType": "CALL",
      "contractName": null,
      "contractAddress": "0x0f98cd1bf3c86260ecf4ef7e3e47d59ce8344c53",
      "function": "setFirstTime(uint256)",
      "arguments": [
        "1374717608611557067579746333946284906022143404884"
      ],
      "transaction": {
        "from": "0x8fe205351ade3b32245ffcba2f58141fa3b0a20f",
        "to": "0x0f98cd1bf3c86260ecf4ef7e3e47d59ce8344c53",
        "gas": "0xa1d9",
        "value": "0x0",
        "input": "0xf1e02620000000000000000000000000f0cc78353f3cff2669049446d97355404be22b54",
        "nonce": "0xbf",
        "chainId": "0xaa36a7"
      },
      "additionalContracts": [],
      "isFixedGasLimit": false
    },
    {
      "hash": "0x2a27ef4ce1a3aa404f0c928096afebc6abf387d0c8d30ed7377f7b822192afd1",
      "transactionType": "CALL",
      "contractName": null,
      "contractAddress": "0x0f98cd1bf3c86260ecf4ef7e3e47d59ce8344c53",
      "function": "setFirstTime(uint256)",
      "arguments": [
        "821426102274785896834133230901177492525823336975"
      ],
      "transaction": {
        "from": "0x8fe205351ade3b32245ffcba2f58141fa3b0a20f",
        "to": "0x0f98cd1bf3c86260ecf4ef7e3e47d59ce8344c53",
        "gas": "0xaecb",
        "value": "0x0",
        "input": "0xf1e026200000000000000000000000008fe205351ade3b32245ffcba2f58141fa3b0a20f",
        "nonce": "0xc0",
        "chainId": "0xaa36a7"
      },
      "additionalContracts": [],
      "isFixedGasLimit": false
    }
  ],
  "receipts": [
    {
      "status": "0x1",
      "cumulativeGasUsed": "0x1a048c1",
      "logs": [],
      "logsBloom": "0x00000000000000000000000000000000000000000000000000000000000000000000000000000000000000000000000000000000000000000000000000000000000000000000000000000000000000000000000000000000000000000000000000000000000000000000000000000000000000000000000000000000000000000000000000000000000000000000000000000000000000000000000000000000000000000000000000000000000000000000000000000000000000000000000000000000000000000000000000000000000000000000000000000000000000000000000000000000000000000000000000000000000000000000000000000000",
      "type": "0x2",
      "transactionHash": "0x446ef366ef077ab83778ac957d29aeed135103646f732b23aae2316fef4521c3",
      "transactionIndex": "0x190",
      "blockHash": "0x8ce49f0898779ab46b76ea6e1ff8c930a0e1d5847e5e2feefc8eb5ef987e5e47",
      "blockNumber": "0x84ecf3",
      "gasUsed": "0x2d5b3",
      "effectiveGasPrice": "0x34b58e3",
      "from": "0x8fe205351ade3b32245ffcba2f58141fa3b0a20f",
      "to": null,
      "contractAddress": "0xf0cc78353f3cff2669049446d97355404be22b54"
    },
    {
      "status": "0x1",
      "cumulativeGasUsed": "0x1a0bdef",
      "logs": [],
      "logsBloom": "0x00000000000000000000000000000000000000000000000000000000000000000000000000000000000000000000000000000000000000000000000000000000000000000000000000000000000000000000000000000000000000000000000000000000000000000000000000000000000000000000000000000000000000000000000000000000000000000000000000000000000000000000000000000000000000000000000000000000000000000000000000000000000000000000000000000000000000000000000000000000000000000000000000000000000000000000000000000000000000000000000000000000000000000000000000000000",
      "type": "0x2",
      "transactionHash": "0x776d9a7a052603408810821477606867ea29fa28cbafc911f07b7560a9bb5206",
      "transactionIndex": "0x191",
      "blockHash": "0x8ce49f0898779ab46b76ea6e1ff8c930a0e1d5847e5e2feefc8eb5ef987e5e47",
      "blockNumber": "0x84ecf3",
      "gasUsed": "0x752e",
      "effectiveGasPrice": "0x34b58e3",
      "from": "0x8fe205351ade3b32245ffcba2f58141fa3b0a20f",
      "to": "0x0f98cd1bf3c86260ecf4ef7e3e47d59ce8344c53",
      "contractAddress": null
    },
    {
      "status": "0x1",
      "cumulativeGasUsed": "0x1a13c7c",
      "logs": [],
      "logsBloom": "0x00000000000000000000000000000000000000000000000000000000000000000000000000000000000000000000000000000000000000000000000000000000000000000000000000000000000000000000000000000000000000000000000000000000000000000000000000000000000000000000000000000000000000000000000000000000000000000000000000000000000000000000000000000000000000000000000000000000000000000000000000000000000000000000000000000000000000000000000000000000000000000000000000000000000000000000000000000000000000000000000000000000000000000000000000000000",
      "type": "0x2",
      "transactionHash": "0x2a27ef4ce1a3aa404f0c928096afebc6abf387d0c8d30ed7377f7b822192afd1",
      "transactionIndex": "0x192",
      "blockHash": "0x8ce49f0898779ab46b76ea6e1ff8c930a0e1d5847e5e2feefc8eb5ef987e5e47",
      "blockNumber": "0x84ecf3",
      "gasUsed": "0x7e8d",
      "effectiveGasPrice": "0x34b58e3",
      "from": "0x8fe205351ade3b32245ffcba2f58141fa3b0a20f",
      "to": "0x0f98cd1bf3c86260ecf4ef7e3e47d59ce8344c53",
      "contractAddress": null
    }
  ],
  "libraries": [],
  "pending": [],
  "returns": {},
  "timestamp": 1751884105,
  "chain": 11155111,
  "commit": "b8c9bdd"
}