{
  "transactions": [
    {
      "hash": "0xcb1f0609d2b48ad8c649eb8cf3505e0ed82e9cc6a8f6569458c48bad44abbe88",
      "transactionType": "CALL",
      "contractName": null,
      "contractAddress": "0xbc07a1299cf8301a7b017f7fab4cf72fb79fca04",
      "function": "setAnimalAndSpin(string)",
      "arguments": [
        "Dog"
      ],
      "transaction": {
        "from": "0x8fe205351ade3b32245ffcba2f58141fa3b0a20f",
        "to": "0xbc07a1299cf8301a7b017f7fab4cf72fb79fca04",
        "gas": "0x1747b",
        "value": "0x0",
        "input": "0xab3b922400000000000000000000000000000000000000000000000000000000000000200000000000000000000000000000000000000000000000000000000000000003446f670000000000000000000000000000000000000000000000000000000000",
        "nonce": "0x1b0",
        "chainId": "0xaa36a7"
      },
      "additionalContracts": [],
      "isFixedGasLimit": false
    },
    {
      "hash": "0xde8144c8280891afa7d72d550c93a536f874a251a84fcd8c843b7816c0f74933",
      "transactionType": "CALL",
      "contractName": null,
      "contractAddress": "0xbc07a1299cf8301a7b017f7fab4cf72fb79fca04",
      "function": "setAnimalAndSpin(string)",
      "arguments": [
        "Parrot"
      ],
      "transaction": {
        "from": "0x8fe205351ade3b32245ffcba2f58141fa3b0a20f",
        "to": "0xbc07a1299cf8301a7b017f7fab4cf72fb79fca04",
        "gas": "0x1186a",
        "value": "0x0",
        "input": "0xab3b922400000000000000000000000000000000000000000000000000000000000000200000000000000000000000000000000000000000000000000000000000000006506172726f740000000000000000000000000000000000000000000000000000",
        "nonce": "0x1b1",
        "chainId": "0xaa36a7"
      },
      "additionalContracts": [],
      "isFixedGasLimit": false
    }
  ],
  "receipts": [
    {
      "status": "0x1",
      "cumulativeGasUsed": "0xba475b",
      "logs": [],
      "logsBloom": "0x00000000000000000000000000000000000000000000000000000000000000000000000000000000000000000000000000000000000000000000000000000000000000000000000000000000000000000000000000000000000000000000000000000000000000000000000000000000000000000000000000000000000000000000000000000000000000000000000000000000000000000000000000000000000000000000000000000000000000000000000000000000000000000000000000000000000000000000000000000000000000000000000000000000000000000000000000000000000000000000000000000000000000000000000000000000",
      "type": "0x2",
      "transactionHash": "0xcb1f0609d2b48ad8c649eb8cf3505e0ed82e9cc6a8f6569458c48bad44abbe88",
      "transactionIndex": "0x63",
      "blockHash": "0xdad24a7292b1114d267217e91f765cdc4ffcd56b008c0013ff999411ce698f31",
      "blockNumber": "0x89f364",
      "gasUsed": "0x10dac",
      "effectiveGasPrice": "0x11016673",
      "from": "0x8fe205351ade3b32245ffcba2f58141fa3b0a20f",
      "to": "0xbc07a1299cf8301a7b017f7fab4cf72fb79fca04",
      "contractAddress": null
    },
    {
      "status": "0x1",
      "cumulativeGasUsed": "0xbb125f",
      "logs": [],
      "logsBloom": "0x00000000000000000000000000000000000000000000000000000000000000000000000000000000000000000000000000000000000000000000000000000000000000000000000000000000000000000000000000000000000000000000000000000000000000000000000000000000000000000000000000000000000000000000000000000000000000000000000000000000000000000000000000000000000000000000000000000000000000000000000000000000000000000000000000000000000000000000000000000000000000000000000000000000000000000000000000000000000000000000000000000000000000000000000000000000",
      "type": "0x2",
      "transactionHash": "0xde8144c8280891afa7d72d550c93a536f874a251a84fcd8c843b7816c0f74933",
      "transactionIndex": "0x64",
      "blockHash": "0xdad24a7292b1114d267217e91f765cdc4ffcd56b008c0013ff999411ce698f31",
      "blockNumber": "0x89f364",
      "gasUsed": "0xcb04",
      "effectiveGasPrice": "0x11016673",
      "from": "0x8fe205351ade3b32245ffcba2f58141fa3b0a20f",
      "to": "0xbc07a1299cf8301a7b017f7fab4cf72fb79fca04",
      "contractAddress": null
    }
  ],
  "libraries": [],
  "pending": [],
  "returns": {},
  "timestamp": 1755879072,
  "chain": 11155111,
  "commit": "9b1c10d"
}