{
  "transactions": [
    {
      "hash": "0xa935a0608d19bbcd646e89393f5f574d00832ca4f3a1c9e575da71d98d6a9694",
      "transactionType": "CREATE",
      "contractName": "Attack",
      "contractAddress": "0x445ccdf792a88588344b098ff4bfebd63ddfd68b",
      "function": null,
      "arguments": null,
      "transaction": {
        "from": "0x8fe205351ade3b32245ffcba2f58141fa3b0a20f",
        "gas": "0x3e6b8",
        "value": "0x0",
        "input": "0x6080604052348015600e575f5ffd5b506102998061001c5f395ff3fe608060405234801561000f575f5ffd5b5060043610610029575f3560e01c80633095c0571461002d575b5f5ffd5b610047600480360381019061004291906101c4565b61005d565b604051610054919061024a565b60405180910390f35b5f8151602083015ff09050803b610072575f5ffd5b919050565b5f604051905090565b5f5ffd5b5f5ffd5b5f5ffd5b5f5ffd5b5f601f19601f8301169050919050565b7f4e487b71000000000000000000000000000000000000000000000000000000005f52604160045260245ffd5b6100d682610090565b810181811067ffffffffffffffff821117156100f5576100f46100a0565b5b80604052505050565b5f610107610077565b905061011382826100cd565b919050565b5f67ffffffffffffffff821115610132576101316100a0565b5b61013b82610090565b9050602081019050919050565b828183375f83830152505050565b5f61016861016384610118565b6100fe565b9050828152602081018484840111156101845761018361008c565b5b61018f848285610148565b509392505050565b5f82601f8301126101ab576101aa610088565b5b81356101bb848260208601610156565b91505092915050565b5f602082840312156101d9576101d8610080565b5b5f82013567ffffffffffffffff8111156101f6576101f5610084565b5b61020284828501610197565b91505092915050565b5f73ffffffffffffffffffffffffffffffffffffffff82169050919050565b5f6102348261020b565b9050919050565b6102448161022a565b82525050565b5f60208201905061025d5f83018461023b565b9291505056fea2646970667358221220cca6e66580187511b3f6508e1f38eacb2ca15efbb2630b8f7de930b7e661d17064736f6c634300081d0033",
        "nonce": "0xdd",
        "chainId": "0xaa36a7"
      },
      "additionalContracts": [],
      "isFixedGasLimit": false
    },
    {
      "hash": "0x4b99b80fe74de3927f7ab99a8f5283083a4963dc64eb0cfc53293a89585b5b76",
      "transactionType": "CALL",
      "contractName": "Attack",
      "contractAddress": "0x445ccdf792a88588344b098ff4bfebd63ddfd68b",
      "function": "attack(bytes)",
      "arguments": [
        "0x602a60405260206040f3"
      ],
      "transaction": {
        "from": "0x8fe205351ade3b32245ffcba2f58141fa3b0a20f",
        "to": "0x445ccdf792a88588344b098ff4bfebd63ddfd68b",
        "gas": "0x14ab5",
        "value": "0x0",
        "input": "0x3095c0570000000000000000000000000000000000000000000000000000000000000020000000000000000000000000000000000000000000000000000000000000000a602a60405260206040f300000000000000000000000000000000000000000000",
        "nonce": "0xde",
        "chainId": "0xaa36a7"
      },
      "additionalContracts": [
        {
          "transactionType": "CREATE",
          "address": "0xfc86f848b59488305fbede79894b430c6b0399a1",
          "initCode": "0x602a60405260206040f3"
        }
      ],
      "isFixedGasLimit": false
    }
  ],
  "receipts": [
    {
      "status": "0x1",
      "cumulativeGasUsed": "0x13e3823",
      "logs": [],
      "logsBloom": "0x00000000000000000000000000000000000000000000000000000000000000000000000000000000000000000000000000000000000000000000000000000000000000000000000000000000000000000000000000000000000000000000000000000000000000000000000000000000000000000000000000000000000000000000000000000000000000000000000000000000000000000000000000000000000000000000000000000000000000000000000000000000000000000000000000000000000000000000000000000000000000000000000000000000000000000000000000000000000000000000000000000000000000000000000000000000",
      "type": "0x2",
      "transactionHash": "0xa935a0608d19bbcd646e89393f5f574d00832ca4f3a1c9e575da71d98d6a9694",
      "transactionIndex": "0xff",
      "blockHash": "0x965ac3fdff7805cb427990d076a32555a33c1db19472ced3fd2e4cac01b901d8",
      "blockNumber": "0x85279a",
      "gasUsed": "0x3003f",
      "effectiveGasPrice": "0x1f6eb3d",
      "from": "0x8fe205351ade3b32245ffcba2f58141fa3b0a20f",
      "to": null,
      "contractAddress": "0x445ccdf792a88588344b098ff4bfebd63ddfd68b"
    },
    {
      "status": "0x1",
      "cumulativeGasUsed": "0x13f2791",
      "logs": [],
      "logsBloom": "0x00000000000000000000000000000000000000000000000000000000000000000000000000000000000000000000000000000000000000000000000000000000000000000000000000000000000000000000000000000000000000000000000000000000000000000000000000000000000000000000000000000000000000000000000000000000000000000000000000000000000000000000000000000000000000000000000000000000000000000000000000000000000000000000000000000000000000000000000000000000000000000000000000000000000000000000000000000000000000000000000000000000000000000000000000000000",
      "type": "0x2",
      "transactionHash": "0x4b99b80fe74de3927f7ab99a8f5283083a4963dc64eb0cfc53293a89585b5b76",
      "transactionIndex": "0x100",
      "blockHash": "0x965ac3fdff7805cb427990d076a32555a33c1db19472ced3fd2e4cac01b901d8",
      "blockNumber": "0x85279a",
      "gasUsed": "0xef6e",
      "effectiveGasPrice": "0x1f6eb3d",
      "from": "0x8fe205351ade3b32245ffcba2f58141fa3b0a20f",
      "to": "0x445ccdf792a88588344b098ff4bfebd63ddfd68b",
      "contractAddress": null
    }
  ],
  "libraries": [],
  "pending": [],
  "returns": {},
  "timestamp": 1752064534,
  "chain": 11155111,
  "commit": "8ba293c"
}