{
  "transactions": [
    {
      "hash": "0x6c301bd1811e49fb24fa64bad5290345aa9b32a8b7ca21a321a6267605d7e218",
      "transactionType": "CREATE",
      "contractName": "Attack",
      "contractAddress": "0xf7601046f6f03e8bd5a04420d991bda3bb46a2d1",
      "function": null,
      "arguments": null,
      "transaction": {
        "from": "0x8fe205351ade3b32245ffcba2f58141fa3b0a20f",
        "gas": "0x319b2",
        "value": "0x0",
        "input": "0x608060405234801561001057600080fd5b506101dd806100206000396000f3fe6080604052600436106100215760003560e01c8062f55d9d1461004257610028565b3661002857005b600073ffffffffffffffffffffffffffffffffffffffff16ff5b34801561004e57600080fd5b506100916004803603602081101561006557600080fd5b81019080803573ffffffffffffffffffffffffffffffffffffffff169060200190929190505050610093565b005b60008190508073ffffffffffffffffffffffffffffffffffffffff16638129fc1c6040518163ffffffff1660e01b8152600401600060405180830381600087803b1580156100e057600080fd5b505af11580156100f4573d6000803e3d6000fd5b505050508073ffffffffffffffffffffffffffffffffffffffff16634f1ef286306040518263ffffffff1660e01b8152600401808273ffffffffffffffffffffffffffffffffffffffff1673ffffffffffffffffffffffffffffffffffffffff1681526020018060200182810382526000815260200160200192505050600060405180830381600087803b15801561018b57600080fd5b505af115801561019f573d6000803e3d6000fd5b50505050505056fea2646970667358221220f1a79dc90677ae7d43442da51d91d9b28c4a4a46d0bbd7dad4538f61bc761ecb64736f6c634300060b0033",
        "nonce": "0x16d",
        "chainId": "0xaa36a7"
      },
      "additionalContracts": [],
      "isFixedGasLimit": false
    },
    {
      "hash": "0x37e4fe2ea122d768445d57989d9b6f82d92ca2a956a202d503d60e862d666022",
      "transactionType": "CALL",
      "contractName": "Attack",
      "contractAddress": "0xf7601046f6f03e8bd5a04420d991bda3bb46a2d1",
      "function": "destroy(address)",
      "arguments": [
        "0xAF76E276552Ff0c91Dd3B66579417B50fF9a60A9"
      ],
      "transaction": {
        "from": "0x8fe205351ade3b32245ffcba2f58141fa3b0a20f",
        "to": "0xf7601046f6f03e8bd5a04420d991bda3bb46a2d1",
        "gas": "0x1f843",
        "value": "0x0",
        "input": "0x00f55d9d000000000000000000000000af76e276552ff0c91dd3b66579417b50ff9a60a9",
        "nonce": "0x16e",
        "chainId": "0xaa36a7"
      },
      "additionalContracts": [],
      "isFixedGasLimit": false
    }
  ],
  "receipts": [
    {
      "status": "0x1",
      "cumulativeGasUsed": "0x104e119",
      "logs": [],
      "logsBloom": "0x00000000000000000000000000000000000000000000000000000000000000000000000000000000000000000000000000000000000000000000000000000000000000000000000000000000000000000000000000000000000000000000000000000000000000000000000000000000000000000000000000000000000000000000000000000000000000000000000000000000000000000000000000000000000000000000000000000000000000000000000000000000000000000000000000000000000000000000000000000000000000000000000000000000000000000000000000000000000000000000000000000000000000000000000000000000",
      "type": "0x2",
      "transactionHash": "0x6c301bd1811e49fb24fa64bad5290345aa9b32a8b7ca21a321a6267605d7e218",
      "transactionIndex": "0x72",
      "blockHash": "0xaf474f85c2f298597941afdac90c4e6d39bbd13093ded3b8f2a104554a850ffb",
      "blockNumber": "0x8913eb",
      "gasUsed": "0x26289",
      "effectiveGasPrice": "0x12f5386b",
      "from": "0x8fe205351ade3b32245ffcba2f58141fa3b0a20f",
      "to": null,
      "contractAddress": "0xf7601046f6f03e8bd5a04420d991bda3bb46a2d1"
    },
    {
      "status": "0x1",
      "cumulativeGasUsed": "0x108ed56",
      "logs": [],
      "logsBloom": "0x00000000000000000000000000000000000000000000000000000000000000000000000000000000000000000000000000000000000000000000000000000000000000000000000000000000000000000000000000000000000000000000000000000000000000000000000000000000000000000000000000000000000000000000000000000000000000000000000000000000000000000000000000000000000000000000000000000000000000000000000000000000000000000000000000000000000000000000000000000000000000000000000000000000000000000000000000000000000000000000000000000000000000000000000000000000",
      "type": "0x2",
      "transactionHash": "0x37e4fe2ea122d768445d57989d9b6f82d92ca2a956a202d503d60e862d666022",
      "transactionIndex": "0x74",
      "blockHash": "0xaf474f85c2f298597941afdac90c4e6d39bbd13093ded3b8f2a104554a850ffb",
      "blockNumber": "0x8913eb",
      "gasUsed": "0x16d14",
      "effectiveGasPrice": "0x12f5386b",
      "from": "0x8fe205351ade3b32245ffcba2f58141fa3b0a20f",
      "to": "0xf7601046f6f03e8bd5a04420d991bda3bb46a2d1",
      "contractAddress": null
    }
  ],
  "libraries": [],
  "pending": [],
  "returns": {},
  "timestamp": 1755187584,
  "chain": 11155111,
  "commit": "f2253d5"
}