{
  "transactions": [
    {
      "hash": "0x747d30e92a9b181a57bbd72f36c9f4a3b29e79f89eceb755c2c2d135fee33ed2",
      "transactionType": "CREATE",
      "contractName": "Attack",
      "contractAddress": "0x711e2887882d0145334a1a30818b0f61b48a74d3",
      "function": null,
      "arguments": null,
      "transaction": {
        "from": "0x8fe205351ade3b32245ffcba2f58141fa3b0a20f",
        "gas": "0x30190",
        "value": "0x0",
        "input": "0x608060405234801561001057600080fd5b506101c7806100206000396000f3fe6080604052600436106100215760003560e01c8062f55d9d1461004257610028565b3661002857005b600073ffffffffffffffffffffffffffffffffffffffff16ff5b34801561004e57600080fd5b506100916004803603602081101561006557600080fd5b81019080803573ffffffffffffffffffffffffffffffffffffffff169060200190929190505050610093565b005b60008190508073ffffffffffffffffffffffffffffffffffffffff16638129fc1c6040518163ffffffff1660e01b8152600401600060405180830381600087803b1580156100e057600080fd5b505af11580156100f4573d6000803e3d6000fd5b505050508073ffffffffffffffffffffffffffffffffffffffff16634f1ef286306040518263ffffffff1660e01b8152600401808273ffffffffffffffffffffffffffffffffffffffff1681526020018060200182810382526000815260200160200192505050600060405180830381600087803b15801561017557600080fd5b505af1158015610189573d6000803e3d6000fd5b50505050505056fea26469706673582212203659a430edc7e7c8cc7302a77d07d2d034bdbb3aaffb6a3be1491205010c6ade64736f6c634300060c0033",
        "nonce": "0x15d",
        "chainId": "0xaa36a7"
      },
      "additionalContracts": [],
      "isFixedGasLimit": false
    },
    {
      "hash": "0x097948a008560fee3b16f266af53f2941057c98be01528344da118648b5c6654",
      "transactionType": "CALL",
      "contractName": "Attack",
      "contractAddress": "0x711e2887882d0145334a1a30818b0f61b48a74d3",
      "function": "destroy(address)",
      "arguments": [
        "0x204a52B9B35De91836C86b36BB55Ef3a49F99CB2"
      ],
      "transaction": {
        "from": "0x8fe205351ade3b32245ffcba2f58141fa3b0a20f",
        "to": "0x711e2887882d0145334a1a30818b0f61b48a74d3",
        "gas": "0x1f83a",
        "value": "0x0",
        "input": "0x00f55d9d000000000000000000000000204a52b9b35de91836c86b36bb55ef3a49f99cb2",
        "nonce": "0x15e",
        "chainId": "0xaa36a7"
      },
      "additionalContracts": [],
      "isFixedGasLimit": false
    }
  ],
  "receipts": [
    {
      "status": "0x1",
      "cumulativeGasUsed": "0x33ea28b",
      "logs": [],
      "logsBloom": "0x00000000000000000000000000000000000000000000000000000000000000000000000000000000000000000000000000000000000000000000000000000000000000000000000000000000000000000000000000000000000000000000000000000000000000000000000000000000000000000000000000000000000000000000000000000000000000000000000000000000000000000000000000000000000000000000000000000000000000000000000000000000000000000000000000000000000000000000000000000000000000000000000000000000000000000000000000000000000000000000000000000000000000000000000000000000",
      "type": "0x2",
      "transactionHash": "0x747d30e92a9b181a57bbd72f36c9f4a3b29e79f89eceb755c2c2d135fee33ed2",
      "transactionIndex": "0x70",
      "blockHash": "0x967d7b119992f1ef06f99aeca95f181d13cc17605bb93dd800302ad8ee3979bb",
      "blockNumber": "0x89135a",
      "gasUsed": "0x24ff9",
      "effectiveGasPrice": "0xb7531ba",
      "from": "0x8fe205351ade3b32245ffcba2f58141fa3b0a20f",
      "to": null,
      "contractAddress": "0x711e2887882d0145334a1a30818b0f61b48a74d3"
    },
    {
      "status": "0x1",
      "cumulativeGasUsed": "0x3400f99",
      "logs": [],
      "logsBloom": "0x00000000000000000000000000000000000000000000000000000000000000000000000000000000000000000000000000000000000000000000000000000000000000000000000000000000000000000000000000000000000000000000000000000000000000000000000000000000000000000000000000000000000000000000000000000000000000000000000000000000000000000000000000000000000000000000000000000000000000000000000000000000000000000000000000000000000000000000000000000000000000000000000000000000000000000000000000000000000000000000000000000000000000000000000000000000",
      "type": "0x2",
      "transactionHash": "0x097948a008560fee3b16f266af53f2941057c98be01528344da118648b5c6654",
      "transactionIndex": "0x71",
      "blockHash": "0x967d7b119992f1ef06f99aeca95f181d13cc17605bb93dd800302ad8ee3979bb",
      "blockNumber": "0x89135a",
      "gasUsed": "0x16d0e",
      "effectiveGasPrice": "0xb7531ba",
      "from": "0x8fe205351ade3b32245ffcba2f58141fa3b0a20f",
      "to": "0x711e2887882d0145334a1a30818b0f61b48a74d3",
      "contractAddress": null
    }
  ],
  "libraries": [],
  "pending": [],
  "returns": {},
  "timestamp": 1755185846,
  "chain": 11155111,
  "commit": "f2253d5"
}