{
  "transactions": [
    {
      "hash": "0x27f0900cad13b03f67fac76626a5e8722630361bd4b3981eacc2d57fbd42e83d",
      "transactionType": "CREATE",
      "contractName": "Attack",
      "contractAddress": "0xd5140ec71c502c495da6593c08132bb580964002",
      "function": null,
      "arguments": null,
      "transaction": {
        "from": "0x8fe205351ade3b32245ffcba2f58141fa3b0a20f",
        "gas": "0x30190",
        "value": "0x0",
        "input": "0x608060405234801561001057600080fd5b506101c7806100206000396000f3fe6080604052600436106100215760003560e01c8062f55d9d1461004257610028565b3661002857005b600073ffffffffffffffffffffffffffffffffffffffff16ff5b34801561004e57600080fd5b506100916004803603602081101561006557600080fd5b81019080803573ffffffffffffffffffffffffffffffffffffffff169060200190929190505050610093565b005b60008190508073ffffffffffffffffffffffffffffffffffffffff16638129fc1c6040518163ffffffff1660e01b8152600401600060405180830381600087803b1580156100e057600080fd5b505af11580156100f4573d6000803e3d6000fd5b505050508073ffffffffffffffffffffffffffffffffffffffff16634f1ef286306040518263ffffffff1660e01b8152600401808273ffffffffffffffffffffffffffffffffffffffff1681526020018060200182810382526000815260200160200192505050600060405180830381600087803b15801561017557600080fd5b505af1158015610189573d6000803e3d6000fd5b50505050505056fea2646970667358221220e31865e6be3cf37378861231550b2461edb54541ff865b71de1e3ee8717c538664736f6c634300060c0033",
        "nonce": "0x162",
        "chainId": "0xaa36a7"
      },
      "additionalContracts": [],
      "isFixedGasLimit": false
    },
    {
      "hash": "0x34b4d8bbba2b7588759bc93210df4f0e36e4cc2b0100a067a512ef70e4769b83",
      "transactionType": "CALL",
      "contractName": "Attack",
      "contractAddress": "0xd5140ec71c502c495da6593c08132bb580964002",
      "function": "destroy(address)",
      "arguments": [
        "0xf7F924bE8C27315689C2C70260f7f562e820493f"
      ],
      "transaction": {
        "from": "0x8fe205351ade3b32245ffcba2f58141fa3b0a20f",
        "to": "0xd5140ec71c502c495da6593c08132bb580964002",
        "gas": "0x1f83a",
        "value": "0x0",
        "input": "0x00f55d9d000000000000000000000000f7f924be8c27315689c2c70260f7f562e820493f",
        "nonce": "0x163",
        "chainId": "0xaa36a7"
      },
      "additionalContracts": [],
      "isFixedGasLimit": false
    }
  ],
  "receipts": [
    {
      "status": "0x1",
      "cumulativeGasUsed": "0x24ff9",
      "logs": [],
      "logsBloom": "0x00000000000000000000000000000000000000000000000000000000000000000000000000000000000000000000000000000000000000000000000000000000000000000000000000000000000000000000000000000000000000000000000000000000000000000000000000000000000000000000000000000000000000000000000000000000000000000000000000000000000000000000000000000000000000000000000000000000000000000000000000000000000000000000000000000000000000000000000000000000000000000000000000000000000000000000000000000000000000000000000000000000000000000000000000000000",
      "type": "0x2",
      "transactionHash": "0x27f0900cad13b03f67fac76626a5e8722630361bd4b3981eacc2d57fbd42e83d",
      "transactionIndex": "0x0",
      "blockHash": "0x0c390a5ae457b1672cbdacc3013744c8e755fdbe6506e4cdc95a6668b0d243ff",
      "blockNumber": "0x8913a4",
      "gasUsed": "0x24ff9",
      "effectiveGasPrice": "0x17d479dc",
      "blobGasPrice": "0x1",
      "from": "0x8fe205351ade3b32245ffcba2f58141fa3b0a20f",
      "to": null,
      "contractAddress": "0xd5140ec71c502c495da6593c08132bb580964002"
    },
    {
      "status": "0x1",
      "cumulativeGasUsed": "0x16d0e",
      "logs": [],
      "logsBloom": "0x00000000000000000000000000000000000000000000000000000000000000000000000000000000000000000000000000000000000000000000000000000000000000000000000000000000000000000000000000000000000000000000000000000000000000000000000000000000000000000000000000000000000000000000000000000000000000000000000000000000000000000000000000000000000000000000000000000000000000000000000000000000000000000000000000000000000000000000000000000000000000000000000000000000000000000000000000000000000000000000000000000000000000000000000000000000",
      "type": "0x2",
      "transactionHash": "0x34b4d8bbba2b7588759bc93210df4f0e36e4cc2b0100a067a512ef70e4769b83",
      "transactionIndex": "0x0",
      "blockHash": "0x4fa981085a8aebc3ab9de215614944155cc017c79196e2b98d225e12011f56cc",
      "blockNumber": "0x8913a5",
      "gasUsed": "0x16d0e",
      "effectiveGasPrice": "0x14e06635",
      "blobGasPrice": "0x1",
      "from": "0x8fe205351ade3b32245ffcba2f58141fa3b0a20f",
      "to": "0xd5140ec71c502c495da6593c08132bb580964002",
      "contractAddress": null
    }
  ],
  "libraries": [],
  "pending": [],
  "returns": {},
  "timestamp": 1755186791,
  "chain": 11155111,
  "commit": "f2253d5"
}