{
  "transactions": [
    {
      "hash": "0xbf73b09f50e5b622c8e28ef5099afb93c3db57873316c41cc8a8f2bedbeca38e",
      "transactionType": "CREATE",
      "contractName": "Attack",
      "contractAddress": "0x2fcd0d412c8a3b8d86de4efacf28eaa41bccb31c",
      "function": null,
      "arguments": null,
      "transaction": {
        "from": "0x8fe205351ade3b32245ffcba2f58141fa3b0a20f",
        "gas": "0x30190",
        "value": "0x0",
        "input": "0x608060405234801561001057600080fd5b506101c7806100206000396000f3fe6080604052600436106100215760003560e01c8062f55d9d1461004257610028565b3661002857005b600073ffffffffffffffffffffffffffffffffffffffff16ff5b34801561004e57600080fd5b506100916004803603602081101561006557600080fd5b81019080803573ffffffffffffffffffffffffffffffffffffffff169060200190929190505050610093565b005b60008190508073ffffffffffffffffffffffffffffffffffffffff16638129fc1c6040518163ffffffff1660e01b8152600401600060405180830381600087803b1580156100e057600080fd5b505af11580156100f4573d6000803e3d6000fd5b505050508073ffffffffffffffffffffffffffffffffffffffff16634f1ef286306040518263ffffffff1660e01b8152600401808273ffffffffffffffffffffffffffffffffffffffff1681526020018060200182810382526000815260200160200192505050600060405180830381600087803b15801561017557600080fd5b505af1158015610189573d6000803e3d6000fd5b50505050505056fea264697066735822122026985a51ca47ca86d397aba3554b71a4aae7d24d2f41a94185ddeffcbe087b7d64736f6c634300060c0033",
        "nonce": "0x169",
        "chainId": "0xaa36a7"
      },
      "additionalContracts": [],
      "isFixedGasLimit": false
    },
    {
      "hash": "0xf57e104f6c6616f6d665f07263c49256456f1aee8bbf62cf31bf9b3a33770caa",
      "transactionType": "CALL",
      "contractName": "Attack",
      "contractAddress": "0x2fcd0d412c8a3b8d86de4efacf28eaa41bccb31c",
      "function": "destroy(address)",
      "arguments": [
        "0xd9AD2B74F60A3F386baa5cE69c88ff08bf101eA5"
      ],
      "transaction": {
        "from": "0x8fe205351ade3b32245ffcba2f58141fa3b0a20f",
        "to": "0x2fcd0d412c8a3b8d86de4efacf28eaa41bccb31c",
        "gas": "0x1f83a",
        "value": "0x0",
        "input": "0x00f55d9d000000000000000000000000d9ad2b74f60a3f386baa5ce69c88ff08bf101ea5",
        "nonce": "0x16a",
        "chainId": "0xaa36a7"
      },
      "additionalContracts": [],
      "isFixedGasLimit": false
    }
  ],
  "receipts": [
    {
      "status": "0x1",
      "cumulativeGasUsed": "0x36d0b65",
      "logs": [],
      "logsBloom": "0x00000000000000000000000000000000000000000000000000000000000000000000000000000000000000000000000000000000000000000000000000000000000000000000000000000000000000000000000000000000000000000000000000000000000000000000000000000000000000000000000000000000000000000000000000000000000000000000000000000000000000000000000000000000000000000000000000000000000000000000000000000000000000000000000000000000000000000000000000000000000000000000000000000000000000000000000000000000000000000000000000000000000000000000000000000000",
      "type": "0x2",
      "transactionHash": "0xbf73b09f50e5b622c8e28ef5099afb93c3db57873316c41cc8a8f2bedbeca38e",
      "transactionIndex": "0x65b",
      "blockHash": "0xef03166d224f9ef8f45cae2b113f23491feb07c6df1fbe619479184a292b3d54",
      "blockNumber": "0x8913db",
      "gasUsed": "0x24ff9",
      "effectiveGasPrice": "0x1fc6d3b2",
      "from": "0x8fe205351ade3b32245ffcba2f58141fa3b0a20f",
      "to": null,
      "contractAddress": "0x2fcd0d412c8a3b8d86de4efacf28eaa41bccb31c"
    },
    {
      "status": "0x1",
      "cumulativeGasUsed": "0x36e7873",
      "logs": [],
      "logsBloom": "0x00000000000000000000000000000000000000000000000000000000000000000000000000000000000000000000000000000000000000000000000000000000000000000000000000000000000000000000000000000000000000000000000000000000000000000000000000000000000000000000000000000000000000000000000000000000000000000000000000000000000000000000000000000000000000000000000000000000000000000000000000000000000000000000000000000000000000000000000000000000000000000000000000000000000000000000000000000000000000000000000000000000000000000000000000000000",
      "type": "0x2",
      "transactionHash": "0xf57e104f6c6616f6d665f07263c49256456f1aee8bbf62cf31bf9b3a33770caa",
      "transactionIndex": "0x65c",
      "blockHash": "0xef03166d224f9ef8f45cae2b113f23491feb07c6df1fbe619479184a292b3d54",
      "blockNumber": "0x8913db",
      "gasUsed": "0x16d0e",
      "effectiveGasPrice": "0x1fc6d3b2",
      "from": "0x8fe205351ade3b32245ffcba2f58141fa3b0a20f",
      "to": "0x2fcd0d412c8a3b8d86de4efacf28eaa41bccb31c",
      "contractAddress": null
    }
  ],
  "libraries": [],
  "pending": [],
  "returns": {},
  "timestamp": 1755187393,
  "chain": 11155111,
  "commit": "f2253d5"
}