{
  "transactions": [
    {
      "hash": "0xb4d3e3c2c05e394615b92f1469eb50718cdad4114b86c93d332dce31e6d1a634",
      "transactionType": "CREATE",
      "contractName": "FakeDetectionBot",
      "contractAddress": "0xa736adaa13a9afd7bd076d8929fc70be9715158b",
      "function": null,
      "arguments": [
        "0x16aBBb42eCDd4b6cd40C0B3dc9f0970Bb79606c6"
      ],
      "transaction": {
        "from": "0x8fe205351ade3b32245ffcba2f58141fa3b0a20f",
        "gas": "0x4f597",
        "value": "0x0",
        "input": "0x608060405234801561000f575f5ffd5b5060405161041f38038061041f833981810160405281019061003191906100d4565b805f5f6101000a81548173ffffffffffffffffffffffffffffffffffffffff021916908373ffffffffffffffffffffffffffffffffffffffff160217905550506100ff565b5f5ffd5b5f73ffffffffffffffffffffffffffffffffffffffff82169050919050565b5f6100a38261007a565b9050919050565b6100b381610099565b81146100bd575f5ffd5b50565b5f815190506100ce816100aa565b92915050565b5f602082840312156100e9576100e8610076565b5b5f6100f6848285016100c0565b91505092915050565b6103138061010c5f395ff3fe608060405234801561000f575f5ffd5b5060043610610034575f3560e01c8063220ab6aa14610038578063d8670e1f14610054575b5f5ffd5b610052600480360381019061004d91906101e4565b610072565b005b61005c6100fd565b604051610069919061029c565b60405180910390f35b5f5f9054906101000a900473ffffffffffffffffffffffffffffffffffffffff1673ffffffffffffffffffffffffffffffffffffffff1663087a43c1846040518263ffffffff1660e01b81526004016100cb91906102c4565b5f604051808303815f87803b1580156100e2575f5ffd5b505af11580156100f4573d5f5f3e3d5ffd5b50505050505050565b5f5f9054906101000a900473ffffffffffffffffffffffffffffffffffffffff1681565b5f5ffd5b5f5ffd5b5f73ffffffffffffffffffffffffffffffffffffffff82169050919050565b5f61015282610129565b9050919050565b61016281610148565b811461016c575f5ffd5b50565b5f8135905061017d81610159565b92915050565b5f5ffd5b5f5ffd5b5f5ffd5b5f5f83601f8401126101a4576101a3610183565b5b8235905067ffffffffffffffff8111156101c1576101c0610187565b5b6020830191508360018202830111156101dd576101dc61018b565b5b9250929050565b5f5f5f604084860312156101fb576101fa610121565b5b5f6102088682870161016f565b935050602084013567ffffffffffffffff81111561022957610228610125565b5b6102358682870161018f565b92509250509250925092565b5f819050919050565b5f61026461025f61025a84610129565b610241565b610129565b9050919050565b5f6102758261024a565b9050919050565b5f6102868261026b565b9050919050565b6102968161027c565b82525050565b5f6020820190506102af5f83018461028d565b92915050565b6102be81610148565b82525050565b5f6020820190506102d75f8301846102b5565b9291505056fea264697066735822122024c75bc6829f4dd564b0b96ee0167808d07a71e38e66e82115a40931b554e87664736f6c634300081d003300000000000000000000000016abbb42ecdd4b6cd40c0b3dc9f0970bb79606c6",
        "nonce": "0x176",
        "chainId": "0xaa36a7"
      },
      "additionalContracts": [],
      "isFixedGasLimit": false
    },
    {
      "hash": "0x7c5df261d3dba6f8068ba187d14af2b2e3bd77ca6c2808503f066090d795350e",
      "transactionType": "CALL",
      "contractName": null,
      "contractAddress": "0x16abbb42ecdd4b6cd40c0b3dc9f0970bb79606c6",
      "function": "setDetectionBot(address)",
      "arguments": [
        "0xA736aDaA13A9AFd7BD076D8929Fc70Be9715158b"
      ],
      "transaction": {
        "from": "0x8fe205351ade3b32245ffcba2f58141fa3b0a20f",
        "to": "0x16abbb42ecdd4b6cd40c0b3dc9f0970bb79606c6",
        "gas": "0xfb10",
        "value": "0x0",
        "input": "0x9e927c68000000000000000000000000a736adaa13a9afd7bd076d8929fc70be9715158b",
        "nonce": "0x177",
        "chainId": "0xaa36a7"
      },
      "additionalContracts": [],
      "isFixedGasLimit": false
    }
  ],
  "receipts": [
    {
      "status": "0x1",
      "cumulativeGasUsed": "0x94ee86",
      "logs": [],
      "logsBloom": "0x00000000000000000000000000000000000000000000000000000000000000000000000000000000000000000000000000000000000000000000000000000000000000000000000000000000000000000000000000000000000000000000000000000000000000000000000000000000000000000000000000000000000000000000000000000000000000000000000000000000000000000000000000000000000000000000000000000000000000000000000000000000000000000000000000000000000000000000000000000000000000000000000000000000000000000000000000000000000000000000000000000000000000000000000000000000",
      "type": "0x2",
      "transactionHash": "0xb4d3e3c2c05e394615b92f1469eb50718cdad4114b86c93d332dce31e6d1a634",
      "transactionIndex": "0x63",
      "blockHash": "0x8e95d97ede5c03afcd294301c2ef65db7f11b6d9c92da2bc1dab73e498a54498",
      "blockNumber": "0x892373",
      "gasUsed": "0x3d09c",
      "effectiveGasPrice": "0x2ec18f",
      "from": "0x8fe205351ade3b32245ffcba2f58141fa3b0a20f",
      "to": null,
      "contractAddress": "0xa736adaa13a9afd7bd076d8929fc70be9715158b"
    },
    {
      "status": "0x1",
      "cumulativeGasUsed": "0x959a31",
      "logs": [],
      "logsBloom": "0x00000000000000000000000000000000000000000000000000000000000000000000000000000000000000000000000000000000000000000000000000000000000000000000000000000000000000000000000000000000000000000000000000000000000000000000000000000000000000000000000000000000000000000000000000000000000000000000000000000000000000000000000000000000000000000000000000000000000000000000000000000000000000000000000000000000000000000000000000000000000000000000000000000000000000000000000000000000000000000000000000000000000000000000000000000000",
      "type": "0x2",
      "transactionHash": "0x7c5df261d3dba6f8068ba187d14af2b2e3bd77ca6c2808503f066090d795350e",
      "transactionIndex": "0x64",
      "blockHash": "0x8e95d97ede5c03afcd294301c2ef65db7f11b6d9c92da2bc1dab73e498a54498",
      "blockNumber": "0x892373",
      "gasUsed": "0xabab",
      "effectiveGasPrice": "0x2ec18f",
      "from": "0x8fe205351ade3b32245ffcba2f58141fa3b0a20f",
      "to": "0x16abbb42ecdd4b6cd40c0b3dc9f0970bb79606c6",
      "contractAddress": null
    }
  ],
  "libraries": [],
  "pending": [],
  "returns": {},
  "timestamp": 1755235548,
  "chain": 11155111,
  "commit": "34361cf"
}