{
  "transactions": [
    {
      "hash": "0x79590ecac1a1ed87d84f5228f64214fef9badc44a99048ab4e251e474e41360d",
      "transactionType": "CREATE",
      "contractName": "DummyStaker",
      "contractAddress": "0x728eaa5630a8905b3703d8d185bd055f609de01a",
      "function": null,
      "arguments": [
        "0xB1D61B7Fe9A88f8E3F9bdD935a6192AAdcB4EC49"
      ],
      "transaction": {
        "from": "0x8fe205351ade3b32245ffcba2f58141fa3b0a20f",
        "gas": "0x38e9f",
        "value": "0x0",
        "input": "0x608060405234801561000f575f5ffd5b506040516102d83803806102d8833981810160405281019061003191906100d4565b805f5f6101000a81548173ffffffffffffffffffffffffffffffffffffffff021916908373ffffffffffffffffffffffffffffffffffffffff160217905550506100ff565b5f5ffd5b5f73ffffffffffffffffffffffffffffffffffffffff82169050919050565b5f6100a38261007a565b9050919050565b6100b381610099565b81146100bd575f5ffd5b50565b5f815190506100ce816100aa565b92915050565b5f602082840312156100e9576100e8610076565b5b5f6100f6848285016100c0565b91505092915050565b6101cc8061010c5f395ff3fe608060405260043610610028575f3560e01c8063d4b839921461002c578063dceb986d14610056575b5f5ffd5b348015610037575f5ffd5b50610040610060565b60405161004d919061017d565b60405180910390f35b61005e610084565b005b5f5f9054906101000a900473ffffffffffffffffffffffffffffffffffffffff1681565b5f5f9054906101000a900473ffffffffffffffffffffffffffffffffffffffff1673ffffffffffffffffffffffffffffffffffffffff166378e7ed2f346040518263ffffffff1660e01b81526004015f604051808303818588803b1580156100ea575f5ffd5b505af11580156100fc573d5f5f3e3d5ffd5b5050505050565b5f73ffffffffffffffffffffffffffffffffffffffff82169050919050565b5f819050919050565b5f61014561014061013b84610103565b610122565b610103565b9050919050565b5f6101568261012b565b9050919050565b5f6101678261014c565b9050919050565b6101778161015d565b82525050565b5f6020820190506101905f83018461016e565b9291505056fea2646970667358221220f8cc4d463372837bb0f760a4d54e27df5844ed7019134f296abcbd56482bad4264736f6c634300081d0033000000000000000000000000b1d61b7fe9a88f8e3f9bdd935a6192aadcb4ec49",
        "nonce": "0x199",
        "chainId": "0xaa36a7"
      },
      "additionalContracts": [],
      "isFixedGasLimit": false
    },
    {
      "hash": "0xe7218abe236af464996501c275bd3d1726eb267b42de319fba752ee9b6f2e08a",
      "transactionType": "CALL",
      "contractName": "DummyStaker",
      "contractAddress": "0x728eaa5630a8905b3703d8d185bd055f609de01a",
      "function": "stakeETH()",
      "arguments": [],
      "transaction": {
        "from": "0x8fe205351ade3b32245ffcba2f58141fa3b0a20f",
        "to": "0x728eaa5630a8905b3703d8d185bd055f609de01a",
        "gas": "0x23977",
        "value": "0x38d7ea4c68002",
        "input": "0xdceb986d",
        "nonce": "0x19a",
        "chainId": "0xaa36a7"
      },
      "additionalContracts": [],
      "isFixedGasLimit": false
    },
    {
      "hash": "0x4564f74fa82a3aa55e5c47d9f6fcfca48e3b69c615cb7b1787e646495edeacef",
      "transactionType": "CALL",
      "contractName": null,
      "contractAddress": "0xcd8af4a0f29cf7966c051542905f66f5dca9052f",
      "function": "approve(address,uint256)",
      "arguments": [
        "0xB1D61B7Fe9A88f8E3F9bdD935a6192AAdcB4EC49",
        "115792089237316195423570985008687907853269984665640564039457584007913129639935"
      ],
      "transaction": {
        "from": "0x8fe205351ade3b32245ffcba2f58141fa3b0a20f",
        "to": "0xcd8af4a0f29cf7966c051542905f66f5dca9052f",
        "gas": "0xfb60",
        "value": "0x0",
        "input": "0x095ea7b3000000000000000000000000b1d61b7fe9a88f8e3f9bdd935a6192aadcb4ec49ffffffffffffffffffffffffffffffffffffffffffffffffffffffffffffffff",
        "nonce": "0x19b",
        "chainId": "0xaa36a7"
      },
      "additionalContracts": [],
      "isFixedGasLimit": false
    },
    {
      "hash": "0x04c2d69824b113296f6c6c949ddb55555e97abcba5bb88d8daead14947b1500a",
      "transactionType": "CALL",
      "contractName": null,
      "contractAddress": "0xb1d61b7fe9a88f8e3f9bdd935a6192aadcb4ec49",
      "function": "StakeWETH(uint256)",
      "arguments": [
        "1000000000000001"
      ],
      "transaction": {
        "from": "0x8fe205351ade3b32245ffcba2f58141fa3b0a20f",
        "to": "0xb1d61b7fe9a88f8e3f9bdd935a6192aadcb4ec49",
        "gas": "0x1c2d6",
        "value": "0x0",
        "input": "0x6e35c74000000000000000000000000000000000000000000000000000038d7ea4c68001",
        "nonce": "0x19c",
        "chainId": "0xaa36a7"
      },
      "additionalContracts": [],
      "isFixedGasLimit": false
    },
    {
      "hash": "0xa89d79a7e2a3b0deffeebdd1f458b61a3388ed98cafb3f28326972a68518c450",
      "transactionType": "CALL",
      "contractName": null,
      "contractAddress": "0xb1d61b7fe9a88f8e3f9bdd935a6192aadcb4ec49",
      "function": "Unstake(uint256)",
      "arguments": [
        "1000000000000001"
      ],
      "transaction": {
        "from": "0x8fe205351ade3b32245ffcba2f58141fa3b0a20f",
        "to": "0xb1d61b7fe9a88f8e3f9bdd935a6192aadcb4ec49",
        "gas": "0xc34c",
        "value": "0x0",
        "input": "0xf1f1db1e00000000000000000000000000000000000000000000000000038d7ea4c68001",
        "nonce": "0x19d",
        "chainId": "0xaa36a7"
      },
      "additionalContracts": [],
      "isFixedGasLimit": false
    }
  ],
  "receipts": [
    {
      "status": "0x1",
      "cumulativeGasUsed": "0xa70386",
      "logs": [],
      "logsBloom": "0x00000000000000000000000000000000000000000000000000000000000000000000000000000000000000000000000000000000000000000000000000000000000000000000000000000000000000000000000000000000000000000000000000000000000000000000000000000000000000000000000000000000000000000000000000000000000000000000000000000000000000000000000000000000000000000000000000000000000000000000000000000000000000000000000000000000000000000000000000000000000000000000000000000000000000000000000000000000000000000000000000000000000000000000000000000000",
      "type": "0x2",
      "transactionHash": "0x79590ecac1a1ed87d84f5228f64214fef9badc44a99048ab4e251e474e41360d",
      "transactionIndex": "0x62",
      "blockHash": "0xb82182424b0c7140b8eaa8acf11fa465898f107dcbdb2d99d960d7f8e2b8deea",
      "blockNumber": "0x89af65",
      "gasUsed": "0x2bc7b",
      "effectiveGasPrice": "0x7062c1",
      "from": "0x8fe205351ade3b32245ffcba2f58141fa3b0a20f",
      "to": null,
      "contractAddress": "0x728eaa5630a8905b3703d8d185bd055f609de01a"
    },
    {
      "status": "0x1",
      "cumulativeGasUsed": "0xa888e7",
      "logs": [],
      "logsBloom": "0x00000000000000000000000000000000000000000000000000000000000000000000000000000000000000000000000000000000000000000000000000000000000000000000000000000000000000000000000000000000000000000000000000000000000000000000000000000000000000000000000000000000000000000000000000000000000000000000000000000000000000000000000000000000000000000000000000000000000000000000000000000000000000000000000000000000000000000000000000000000000000000000000000000000000000000000000000000000000000000000000000000000000000000000000000000000",
      "type": "0x2",
      "transactionHash": "0xe7218abe236af464996501c275bd3d1726eb267b42de319fba752ee9b6f2e08a",
      "transactionIndex": "0x63",
      "blockHash": "0xb82182424b0c7140b8eaa8acf11fa465898f107dcbdb2d99d960d7f8e2b8deea",
      "blockNumber": "0x89af65",
      "gasUsed": "0x18561",
      "effectiveGasPrice": "0x7062c1",
      "from": "0x8fe205351ade3b32245ffcba2f58141fa3b0a20f",
      "to": "0x728eaa5630a8905b3703d8d185bd055f609de01a",
      "contractAddress": null
    },
    {
      "status": "0x1",
      "cumulativeGasUsed": "0xa93ee6",
      "logs": [
        {
          "address": "0xcd8af4a0f29cf7966c051542905f66f5dca9052f",
          "topics": [
            "0x8c5be1e5ebec7d5bd14f71427d1e84f3dd0314c0f7b2291e5b200ac8c7c3b925",
            "0x0000000000000000000000008fe205351ade3b32245ffcba2f58141fa3b0a20f",
            "0x000000000000000000000000b1d61b7fe9a88f8e3f9bdd935a6192aadcb4ec49"
          ],
          "data": "0xffffffffffffffffffffffffffffffffffffffffffffffffffffffffffffffff",
          "blockHash": "0xb82182424b0c7140b8eaa8acf11fa465898f107dcbdb2d99d960d7f8e2b8deea",
          "blockNumber": "0x89af65",
          "blockTimestamp": "0x68a55e48",
          "transactionHash": "0x4564f74fa82a3aa55e5c47d9f6fcfca48e3b69c615cb7b1787e646495edeacef",
          "transactionIndex": "0x64",
          "logIndex": "0xcc",
          "removed": false
        }
      ],
      "logsBloom": "0x00000000000000000000000000000000000000000000000000000200000000000000000000000000000000000000000000000000000000000000000000200000000000000000000000000000000000000000000000010000000000000000000000000000000002000000000000000000000040000440000000000000000000000000008008000000000000000000000000000000000000000000000000000000020000000000000000000000000000000000000000000000000000000000000000000000000000000000000000000000000000000000000000000000000000000010000000000000000004000000000000000000000000000000000000000000",
      "type": "0x2",
      "transactionHash": "0x4564f74fa82a3aa55e5c47d9f6fcfca48e3b69c615cb7b1787e646495edeacef",
      "transactionIndex": "0x64",
      "blockHash": "0xb82182424b0c7140b8eaa8acf11fa465898f107dcbdb2d99d960d7f8e2b8deea",
      "blockNumber": "0x89af65",
      "gasUsed": "0xb5ff",
      "effectiveGasPrice": "0x7062c1",
      "from": "0x8fe205351ade3b32245ffcba2f58141fa3b0a20f",
      "to": "0xcd8af4a0f29cf7966c051542905f66f5dca9052f",
      "contractAddress": null
    },
    {
      "status": "0x1",
      "cumulativeGasUsed": "0xaa854c",
      "logs": [],
      "logsBloom": "0x00000000000000000000000000000000000000000000000000000000000000000000000000000000000000000000000000000000000000000000000000000000000000000000000000000000000000000000000000000000000000000000000000000000000000000000000000000000000000000000000000000000000000000000000000000000000000000000000000000000000000000000000000000000000000000000000000000000000000000000000000000000000000000000000000000000000000000000000000000000000000000000000000000000000000000000000000000000000000000000000000000000000000000000000000000000",
      "type": "0x2",
      "transactionHash": "0x04c2d69824b113296f6c6c949ddb55555e97abcba5bb88d8daead14947b1500a",
      "transactionIndex": "0x65",
      "blockHash": "0xb82182424b0c7140b8eaa8acf11fa465898f107dcbdb2d99d960d7f8e2b8deea",
      "blockNumber": "0x89af65",
      "gasUsed": "0x14666",
      "effectiveGasPrice": "0x7062c1",
      "from": "0x8fe205351ade3b32245ffcba2f58141fa3b0a20f",
      "to": "0xb1d61b7fe9a88f8e3f9bdd935a6192aadcb4ec49",
      "contractAddress": null
    },
    {
      "status": "0x1",
      "cumulativeGasUsed": "0xab0ad6",
      "logs": [],
      "logsBloom": "0x00000000000000000000000000000000000000000000000000000000000000000000000000000000000000000000000000000000000000000000000000000000000000000000000000000000000000000000000000000000000000000000000000000000000000000000000000000000000000000000000000000000000000000000000000000000000000000000000000000000000000000000000000000000000000000000000000000000000000000000000000000000000000000000000000000000000000000000000000000000000000000000000000000000000000000000000000000000000000000000000000000000000000000000000000000000",
      "type": "0x2",
      "transactionHash": "0xa89d79a7e2a3b0deffeebdd1f458b61a3388ed98cafb3f28326972a68518c450",
      "transactionIndex": "0x66",
      "blockHash": "0xb82182424b0c7140b8eaa8acf11fa465898f107dcbdb2d99d960d7f8e2b8deea",
      "blockNumber": "0x89af65",
      "gasUsed": "0x858a",
      "effectiveGasPrice": "0x7062c1",
      "from": "0x8fe205351ade3b32245ffcba2f58141fa3b0a20f",
      "to": "0xb1d61b7fe9a88f8e3f9bdd935a6192aadcb4ec49",
      "contractAddress": null
    }
  ],
  "libraries": [],
  "pending": [],
  "returns": {},
  "timestamp": 1755668041,
  "chain": 11155111,
  "commit": "d65daa6"
}