{
  "transactions": [
    {
      "hash": "0xcd9fbf6ca33696abd9390e858b2bbe0f28b2d59dfe8b4baa4d266da6b86bfee1",
      "transactionType": "CREATE",
      "contractName": "DummyStaker",
      "contractAddress": "0xedffdec78cf3a20de81d677589d3ae39e01ba9b2",
      "function": null,
      "arguments": [
        "0x8371c79e5226C50088064685d30c9FF4e35e1D2C"
      ],
      "transaction": {
        "from": "0x8fe205351ade3b32245ffcba2f58141fa3b0a20f",
        "gas": "0x38e90",
        "value": "0x0",
        "input": "0x608060405234801561000f575f5ffd5b506040516102d83803806102d8833981810160405281019061003191906100d4565b805f5f6101000a81548173ffffffffffffffffffffffffffffffffffffffff021916908373ffffffffffffffffffffffffffffffffffffffff160217905550506100ff565b5f5ffd5b5f73ffffffffffffffffffffffffffffffffffffffff82169050919050565b5f6100a38261007a565b9050919050565b6100b381610099565b81146100bd575f5ffd5b50565b5f815190506100ce816100aa565b92915050565b5f602082840312156100e9576100e8610076565b5b5f6100f6848285016100c0565b91505092915050565b6101cc8061010c5f395ff3fe608060405260043610610028575f3560e01c8063d4b839921461002c578063dceb986d14610056575b5f5ffd5b348015610037575f5ffd5b50610040610060565b60405161004d919061017d565b60405180910390f35b61005e610084565b005b5f5f9054906101000a900473ffffffffffffffffffffffffffffffffffffffff1681565b5f5f9054906101000a900473ffffffffffffffffffffffffffffffffffffffff1673ffffffffffffffffffffffffffffffffffffffff166378e7ed2f346040518263ffffffff1660e01b81526004015f604051808303818588803b1580156100ea575f5ffd5b505af11580156100fc573d5f5f3e3d5ffd5b5050505050565b5f73ffffffffffffffffffffffffffffffffffffffff82169050919050565b5f819050919050565b5f61014561014061013b84610103565b610122565b610103565b9050919050565b5f6101568261012b565b9050919050565b5f6101678261014c565b9050919050565b6101778161015d565b82525050565b5f6020820190506101905f83018461016e565b9291505056fea26469706673582212204901125ed4575d364409ced3e9e3d317752c846fce5ceb50b01f066fb5c630ed64736f6c634300081d00330000000000000000000000008371c79e5226c50088064685d30c9ff4e35e1d2c",
        "nonce": "0x1a6",
        "chainId": "0xaa36a7"
      },
      "additionalContracts": [],
      "isFixedGasLimit": false
    },
    {
      "hash": "0x0d8524ff44f74e16f9b6b99473adc8618285b9c551dc8aa6b2041f46fe69a1fa",
      "transactionType": "CALL",
      "contractName": "DummyStaker",
      "contractAddress": "0xedffdec78cf3a20de81d677589d3ae39e01ba9b2",
      "function": "stakeETH()",
      "arguments": [],
      "transaction": {
        "from": "0x8fe205351ade3b32245ffcba2f58141fa3b0a20f",
        "to": "0xedffdec78cf3a20de81d677589d3ae39e01ba9b2",
        "gas": "0x23977",
        "value": "0x38d7ea4c68002",
        "input": "0xdceb986d",
        "nonce": "0x1a7",
        "chainId": "0xaa36a7"
      },
      "additionalContracts": [],
      "isFixedGasLimit": false
    },
    {
      "hash": "0x3df940071e7b9e4dff5799db99ae2bd8a65bfeb43304a0f84d119fadc1cf99f7",
      "transactionType": "CALL",
      "contractName": null,
      "contractAddress": "0xcd8af4a0f29cf7966c051542905f66f5dca9052f",
      "function": "approve(address,uint256)",
      "arguments": [
        "0x8371c79e5226C50088064685d30c9FF4e35e1D2C",
        "115792089237316195423570985008687907853269984665640564039457584007913129639935"
      ],
      "transaction": {
        "from": "0x8fe205351ade3b32245ffcba2f58141fa3b0a20f",
        "to": "0xcd8af4a0f29cf7966c051542905f66f5dca9052f",
        "gas": "0x10a19",
        "value": "0x0",
        "input": "0x095ea7b30000000000000000000000008371c79e5226c50088064685d30c9ff4e35e1d2cffffffffffffffffffffffffffffffffffffffffffffffffffffffffffffffff",
        "nonce": "0x1a8",
        "chainId": "0xaa36a7"
      },
      "additionalContracts": [],
      "isFixedGasLimit": false
    },
    {
      "hash": "0x499cc003b58743ac1f8cfea1cc323a91538ad07840a44881d7695e4072ccfaf7",
      "transactionType": "CALL",
      "contractName": null,
      "contractAddress": "0x8371c79e5226c50088064685d30c9ff4e35e1d2c",
      "function": "StakeWETH(uint256)",
      "arguments": [
        "1000000000000001"
      ],
      "transaction": {
        "from": "0x8fe205351ade3b32245ffcba2f58141fa3b0a20f",
        "to": "0x8371c79e5226c50088064685d30c9ff4e35e1d2c",
        "gas": "0x1c2d6",
        "value": "0x0",
        "input": "0x6e35c74000000000000000000000000000000000000000000000000000038d7ea4c68001",
        "nonce": "0x1a9",
        "chainId": "0xaa36a7"
      },
      "additionalContracts": [],
      "isFixedGasLimit": false
    },
    {
      "hash": "0x0c56c0fed7ded980949139621b7e854f515dfc5e57ae2eb51c0c543ea467f35d",
      "transactionType": "CALL",
      "contractName": null,
      "contractAddress": "0x8371c79e5226c50088064685d30c9ff4e35e1d2c",
      "function": "Unstake(uint256)",
      "arguments": [
        "1000000000000001"
      ],
      "transaction": {
        "from": "0x8fe205351ade3b32245ffcba2f58141fa3b0a20f",
        "to": "0x8371c79e5226c50088064685d30c9ff4e35e1d2c",
        "gas": "0xc34c",
        "value": "0x0",
        "input": "0xf1f1db1e00000000000000000000000000000000000000000000000000038d7ea4c68001",
        "nonce": "0x1aa",
        "chainId": "0xaa36a7"
      },
      "additionalContracts": [],
      "isFixedGasLimit": false
    }
  ],
  "receipts": [
    {
      "status": "0x1",
      "cumulativeGasUsed": "0xad1da3",
      "logs": [],
      "logsBloom": "0x00000000000000000000000000000000000000000000000000000000000000000000000000000000000000000000000000000000000000000000000000000000000000000000000000000000000000000000000000000000000000000000000000000000000000000000000000000000000000000000000000000000000000000000000000000000000000000000000000000000000000000000000000000000000000000000000000000000000000000000000000000000000000000000000000000000000000000000000000000000000000000000000000000000000000000000000000000000000000000000000000000000000000000000000000000000",
      "type": "0x2",
      "transactionHash": "0xcd9fbf6ca33696abd9390e858b2bbe0f28b2d59dfe8b4baa4d266da6b86bfee1",
      "transactionIndex": "0x78",
      "blockHash": "0x67037ce9cd19a6cc121445191d7b3c617d1753b3c63bfde6a6bc9c0540bd651e",
      "blockNumber": "0x89af7e",
      "gasUsed": "0x2bc6f",
      "effectiveGasPrice": "0x492be4",
      "from": "0x8fe205351ade3b32245ffcba2f58141fa3b0a20f",
      "to": null,
      "contractAddress": "0xedffdec78cf3a20de81d677589d3ae39e01ba9b2"
    },
    {
      "status": "0x1",
      "cumulativeGasUsed": "0xaea304",
      "logs": [],
      "logsBloom": "0x00000000000000000000000000000000000000000000000000000000000000000000000000000000000000000000000000000000000000000000000000000000000000000000000000000000000000000000000000000000000000000000000000000000000000000000000000000000000000000000000000000000000000000000000000000000000000000000000000000000000000000000000000000000000000000000000000000000000000000000000000000000000000000000000000000000000000000000000000000000000000000000000000000000000000000000000000000000000000000000000000000000000000000000000000000000",
      "type": "0x2",
      "transactionHash": "0x0d8524ff44f74e16f9b6b99473adc8618285b9c551dc8aa6b2041f46fe69a1fa",
      "transactionIndex": "0x79",
      "blockHash": "0x67037ce9cd19a6cc121445191d7b3c617d1753b3c63bfde6a6bc9c0540bd651e",
      "blockNumber": "0x89af7e",
      "gasUsed": "0x18561",
      "effectiveGasPrice": "0x492be4",
      "from": "0x8fe205351ade3b32245ffcba2f58141fa3b0a20f",
      "to": "0xedffdec78cf3a20de81d677589d3ae39e01ba9b2",
      "contractAddress": null
    },
    {
      "status": "0x1",
      "cumulativeGasUsed": "0xaf58f7",
      "logs": [
        {
          "address": "0xcd8af4a0f29cf7966c051542905f66f5dca9052f",
          "topics": [
            "0x8c5be1e5ebec7d5bd14f71427d1e84f3dd0314c0f7b2291e5b200ac8c7c3b925",
            "0x0000000000000000000000008fe205351ade3b32245ffcba2f58141fa3b0a20f",
            "0x0000000000000000000000008371c79e5226c50088064685d30c9ff4e35e1d2c"
          ],
          "data": "0xffffffffffffffffffffffffffffffffffffffffffffffffffffffffffffffff",
          "blockHash": "0x67037ce9cd19a6cc121445191d7b3c617d1753b3c63bfde6a6bc9c0540bd651e",
          "blockNumber": "0x89af7e",
          "blockTimestamp": "0x68a55f74",
          "transactionHash": "0x3df940071e7b9e4dff5799db99ae2bd8a65bfeb43304a0f84d119fadc1cf99f7",
          "transactionIndex": "0x7a",
          "logIndex": "0xf8",
          "removed": false
        }
      ],
      "logsBloom": "0x00000000000000000000000000000000000000000000000000000200000000000000000000000000000000000000800000000000000000000000000000200000000000000000000000000000000000000000000000000000000000000000000000000000000002000800000000000000000000000440000000000000000000000000008000000000000000000000000000000000000000000000000000000000020000000000000000000000000000000000000000000000000000000000000000000000000000000000000000000000000000000000000000000000000000000010000000000000000004000000000000000000200000000000000000000000",
      "type": "0x2",
      "transactionHash": "0x3df940071e7b9e4dff5799db99ae2bd8a65bfeb43304a0f84d119fadc1cf99f7",
      "transactionIndex": "0x7a",
      "blockHash": "0x67037ce9cd19a6cc121445191d7b3c617d1753b3c63bfde6a6bc9c0540bd651e",
      "blockNumber": "0x89af7e",
      "gasUsed": "0xb5f3",
      "effectiveGasPrice": "0x492be4",
      "from": "0x8fe205351ade3b32245ffcba2f58141fa3b0a20f",
      "to": "0xcd8af4a0f29cf7966c051542905f66f5dca9052f",
      "contractAddress": null
    },
    {
      "status": "0x1",
      "cumulativeGasUsed": "0xb09f5d",
      "logs": [],
      "logsBloom": "0x00000000000000000000000000000000000000000000000000000000000000000000000000000000000000000000000000000000000000000000000000000000000000000000000000000000000000000000000000000000000000000000000000000000000000000000000000000000000000000000000000000000000000000000000000000000000000000000000000000000000000000000000000000000000000000000000000000000000000000000000000000000000000000000000000000000000000000000000000000000000000000000000000000000000000000000000000000000000000000000000000000000000000000000000000000000",
      "type": "0x2",
      "transactionHash": "0x499cc003b58743ac1f8cfea1cc323a91538ad07840a44881d7695e4072ccfaf7",
      "transactionIndex": "0x7b",
      "blockHash": "0x67037ce9cd19a6cc121445191d7b3c617d1753b3c63bfde6a6bc9c0540bd651e",
      "blockNumber": "0x89af7e",
      "gasUsed": "0x14666",
      "effectiveGasPrice": "0x492be4",
      "from": "0x8fe205351ade3b32245ffcba2f58141fa3b0a20f",
      "to": "0x8371c79e5226c50088064685d30c9ff4e35e1d2c",
      "contractAddress": null
    },
    {
      "status": "0x1",
      "cumulativeGasUsed": "0xb124e7",
      "logs": [],
      "logsBloom": "0x00000000000000000000000000000000000000000000000000000000000000000000000000000000000000000000000000000000000000000000000000000000000000000000000000000000000000000000000000000000000000000000000000000000000000000000000000000000000000000000000000000000000000000000000000000000000000000000000000000000000000000000000000000000000000000000000000000000000000000000000000000000000000000000000000000000000000000000000000000000000000000000000000000000000000000000000000000000000000000000000000000000000000000000000000000000",
      "type": "0x2",
      "transactionHash": "0x0c56c0fed7ded980949139621b7e854f515dfc5e57ae2eb51c0c543ea467f35d",
      "transactionIndex": "0x7c",
      "blockHash": "0x67037ce9cd19a6cc121445191d7b3c617d1753b3c63bfde6a6bc9c0540bd651e",
      "blockNumber": "0x89af7e",
      "gasUsed": "0x858a",
      "effectiveGasPrice": "0x492be4",
      "from": "0x8fe205351ade3b32245ffcba2f58141fa3b0a20f",
      "to": "0x8371c79e5226c50088064685d30c9ff4e35e1d2c",
      "contractAddress": null
    }
  ],
  "libraries": [],
  "pending": [],
  "returns": {},
  "timestamp": 1755668341,
  "chain": 11155111,
  "commit": "d65daa6"
}