{
  "transactions": [
    {
      "hash": "0xc87ffedfdc83d44a83af0cacb04f78fe6179537488c23adb62150524f1d44720",
      "transactionType": "CREATE",
      "contractName": "DummyStaker",
      "contractAddress": "0x6f8fe48d6ec5a64d51ef5e17a754f80f21acadea",
      "function": null,
      "arguments": [
        "0x543db8Ceff3DE7Be64ea774b9DA2c3a315EA9736"
      ],
      "transaction": {
        "from": "0x8fe205351ade3b32245ffcba2f58141fa3b0a20f",
        "gas": "0x38e9f",
        "value": "0x0",
        "input": "0x608060405234801561000f575f5ffd5b506040516102d83803806102d8833981810160405281019061003191906100d4565b805f5f6101000a81548173ffffffffffffffffffffffffffffffffffffffff021916908373ffffffffffffffffffffffffffffffffffffffff160217905550506100ff565b5f5ffd5b5f73ffffffffffffffffffffffffffffffffffffffff82169050919050565b5f6100a38261007a565b9050919050565b6100b381610099565b81146100bd575f5ffd5b50565b5f815190506100ce816100aa565b92915050565b5f602082840312156100e9576100e8610076565b5b5f6100f6848285016100c0565b91505092915050565b6101cc8061010c5f395ff3fe608060405260043610610028575f3560e01c8063d4b839921461002c578063dceb986d14610056575b5f5ffd5b348015610037575f5ffd5b50610040610060565b60405161004d919061017d565b60405180910390f35b61005e610084565b005b5f5f9054906101000a900473ffffffffffffffffffffffffffffffffffffffff1681565b5f5f9054906101000a900473ffffffffffffffffffffffffffffffffffffffff1673ffffffffffffffffffffffffffffffffffffffff166378e7ed2f346040518263ffffffff1660e01b81526004015f604051808303818588803b1580156100ea575f5ffd5b505af11580156100fc573d5f5f3e3d5ffd5b5050505050565b5f73ffffffffffffffffffffffffffffffffffffffff82169050919050565b5f819050919050565b5f61014561014061013b84610103565b610122565b610103565b9050919050565b5f6101568261012b565b9050919050565b5f6101678261014c565b9050919050565b6101778161015d565b82525050565b5f6020820190506101905f83018461016e565b9291505056fea2646970667358221220681a63637bdc3bad8e5df0fbedc81474ec97b8e1ccab6372f3e3d56b57b7d66c64736f6c634300081d0033000000000000000000000000543db8ceff3de7be64ea774b9da2c3a315ea9736",
        "nonce": "0x1a0",
        "chainId": "0xaa36a7"
      },
      "additionalContracts": [],
      "isFixedGasLimit": false
    },
    {
      "hash": "0xad2358fa07ee9f3a5f1ded0b52ba7dd5aba67d83003ff9c9a828b9d0b7c4c6da",
      "transactionType": "CALL",
      "contractName": "DummyStaker",
      "contractAddress": "0x6f8fe48d6ec5a64d51ef5e17a754f80f21acadea",
      "function": "stakeETH()",
      "arguments": [],
      "transaction": {
        "from": "0x8fe205351ade3b32245ffcba2f58141fa3b0a20f",
        "to": "0x6f8fe48d6ec5a64d51ef5e17a754f80f21acadea",
        "gas": "0x23977",
        "value": "0x38d7ea4c68002",
        "input": "0xdceb986d",
        "nonce": "0x1a1",
        "chainId": "0xaa36a7"
      },
      "additionalContracts": [],
      "isFixedGasLimit": false
    },
    {
      "hash": "0xf6093d21b37e922ff43baf614b00f1e8a0591c6820c0269688bbad7f83748256",
      "transactionType": "CALL",
      "contractName": null,
      "contractAddress": "0xcd8af4a0f29cf7966c051542905f66f5dca9052f",
      "function": "approve(address,uint256)",
      "arguments": [
        "0x543db8Ceff3DE7Be64ea774b9DA2c3a315EA9736",
        "115792089237316195423570985008687907853269984665640564039457584007913129639935"
      ],
      "transaction": {
        "from": "0x8fe205351ade3b32245ffcba2f58141fa3b0a20f",
        "to": "0xcd8af4a0f29cf7966c051542905f66f5dca9052f",
        "gas": "0xfb60",
        "value": "0x0",
        "input": "0x095ea7b3000000000000000000000000543db8ceff3de7be64ea774b9da2c3a315ea9736ffffffffffffffffffffffffffffffffffffffffffffffffffffffffffffffff",
        "nonce": "0x1a2",
        "chainId": "0xaa36a7"
      },
      "additionalContracts": [],
      "isFixedGasLimit": false
    },
    {
      "hash": "0xb26a94f815368fce2f44668f7175757bafae18b02ee15650c751702f4d080e90",
      "transactionType": "CALL",
      "contractName": null,
      "contractAddress": "0x543db8ceff3de7be64ea774b9da2c3a315ea9736",
      "function": "StakeWETH(uint256)",
      "arguments": [
        "1000000000000001"
      ],
      "transaction": {
        "from": "0x8fe205351ade3b32245ffcba2f58141fa3b0a20f",
        "to": "0x543db8ceff3de7be64ea774b9da2c3a315ea9736",
        "gas": "0x1c2d6",
        "value": "0x0",
        "input": "0x6e35c74000000000000000000000000000000000000000000000000000038d7ea4c68001",
        "nonce": "0x1a3",
        "chainId": "0xaa36a7"
      },
      "additionalContracts": [],
      "isFixedGasLimit": false
    },
    {
      "hash": "0xcca316495816b9f040a9dcd147e011e5ba0722ad7ba89ec3b5534faab2afd09c",
      "transactionType": "CALL",
      "contractName": null,
      "contractAddress": "0x543db8ceff3de7be64ea774b9da2c3a315ea9736",
      "function": "Unstake(uint256)",
      "arguments": [
        "1000000000000001"
      ],
      "transaction": {
        "from": "0x8fe205351ade3b32245ffcba2f58141fa3b0a20f",
        "to": "0x543db8ceff3de7be64ea774b9da2c3a315ea9736",
        "gas": "0xc34c",
        "value": "0x0",
        "input": "0xf1f1db1e00000000000000000000000000000000000000000000000000038d7ea4c68001",
        "nonce": "0x1a4",
        "chainId": "0xaa36a7"
      },
      "additionalContracts": [],
      "isFixedGasLimit": false
    }
  ],
  "receipts": [
    {
      "status": "0x1",
      "cumulativeGasUsed": "0xdc1a99",
      "logs": [],
      "logsBloom": "0x00000000000000000000000000000000000000000000000000000000000000000000000000000000000000000000000000000000000000000000000000000000000000000000000000000000000000000000000000000000000000000000000000000000000000000000000000000000000000000000000000000000000000000000000000000000000000000000000000000000000000000000000000000000000000000000000000000000000000000000000000000000000000000000000000000000000000000000000000000000000000000000000000000000000000000000000000000000000000000000000000000000000000000000000000000000",
      "type": "0x2",
      "transactionHash": "0xc87ffedfdc83d44a83af0cacb04f78fe6179537488c23adb62150524f1d44720",
      "transactionIndex": "0x73",
      "blockHash": "0x3b28768f7b510e58e074c6a6aa08f42df00da3c8b09fd000eff4ba5447839c28",
      "blockNumber": "0x89af73",
      "gasUsed": "0x2bc7b",
      "effectiveGasPrice": "0x49f32e",
      "from": "0x8fe205351ade3b32245ffcba2f58141fa3b0a20f",
      "to": null,
      "contractAddress": "0x6f8fe48d6ec5a64d51ef5e17a754f80f21acadea"
    },
    {
      "status": "0x1",
      "cumulativeGasUsed": "0xdd9ffa",
      "logs": [],
      "logsBloom": "0x00000000000000000000000000000000000000000000000000000000000000000000000000000000000000000000000000000000000000000000000000000000000000000000000000000000000000000000000000000000000000000000000000000000000000000000000000000000000000000000000000000000000000000000000000000000000000000000000000000000000000000000000000000000000000000000000000000000000000000000000000000000000000000000000000000000000000000000000000000000000000000000000000000000000000000000000000000000000000000000000000000000000000000000000000000000",
      "type": "0x2",
      "transactionHash": "0xad2358fa07ee9f3a5f1ded0b52ba7dd5aba67d83003ff9c9a828b9d0b7c4c6da",
      "transactionIndex": "0x74",
      "blockHash": "0x3b28768f7b510e58e074c6a6aa08f42df00da3c8b09fd000eff4ba5447839c28",
      "blockNumber": "0x89af73",
      "gasUsed": "0x18561",
      "effectiveGasPrice": "0x49f32e",
      "from": "0x8fe205351ade3b32245ffcba2f58141fa3b0a20f",
      "to": "0x6f8fe48d6ec5a64d51ef5e17a754f80f21acadea",
      "contractAddress": null
    },
    {
      "status": "0x1",
      "cumulativeGasUsed": "0xde55f9",
      "logs": [
        {
          "address": "0xcd8af4a0f29cf7966c051542905f66f5dca9052f",
          "topics": [
            "0x8c5be1e5ebec7d5bd14f71427d1e84f3dd0314c0f7b2291e5b200ac8c7c3b925",
            "0x0000000000000000000000008fe205351ade3b32245ffcba2f58141fa3b0a20f",
            "0x000000000000000000000000543db8ceff3de7be64ea774b9da2c3a315ea9736"
          ],
          "data": "0xffffffffffffffffffffffffffffffffffffffffffffffffffffffffffffffff",
          "blockHash": "0x3b28768f7b510e58e074c6a6aa08f42df00da3c8b09fd000eff4ba5447839c28",
          "blockNumber": "0x89af73",
          "blockTimestamp": "0x68a55ef0",
          "transactionHash": "0xf6093d21b37e922ff43baf614b00f1e8a0591c6820c0269688bbad7f83748256",
          "transactionIndex": "0x75",
          "logIndex": "0xbb",
          "removed": false
        }
      ],
      "logsBloom": "0x00000000000000000000000000000000000000000000000000000200000000000000000000000000000000000000000000000000000000000000000000200000000000000000000000000000000000000000000000000000000000000000000000000000000002000000000000000000000000000440000000000020000000000000008000000000000000000000000000000000000000000000000000000000020000000002000000000000000200000000000000000000000000000000000000000000000000000000000000000000000000000000000000000000000000000010000000000000000004000000000000000000000000000000000000000000",
      "type": "0x2",
      "transactionHash": "0xf6093d21b37e922ff43baf614b00f1e8a0591c6820c0269688bbad7f83748256",
      "transactionIndex": "0x75",
      "blockHash": "0x3b28768f7b510e58e074c6a6aa08f42df00da3c8b09fd000eff4ba5447839c28",
      "blockNumber": "0x89af73",
      "gasUsed": "0xb5ff",
      "effectiveGasPrice": "0x49f32e",
      "from": "0x8fe205351ade3b32245ffcba2f58141fa3b0a20f",
      "to": "0xcd8af4a0f29cf7966c051542905f66f5dca9052f",
      "contractAddress": null
    },
    {
      "status": "0x1",
      "cumulativeGasUsed": "0xdf9c5f",
      "logs": [],
      "logsBloom": "0x00000000000000000000000000000000000000000000000000000000000000000000000000000000000000000000000000000000000000000000000000000000000000000000000000000000000000000000000000000000000000000000000000000000000000000000000000000000000000000000000000000000000000000000000000000000000000000000000000000000000000000000000000000000000000000000000000000000000000000000000000000000000000000000000000000000000000000000000000000000000000000000000000000000000000000000000000000000000000000000000000000000000000000000000000000000",
      "type": "0x2",
      "transactionHash": "0xb26a94f815368fce2f44668f7175757bafae18b02ee15650c751702f4d080e90",
      "transactionIndex": "0x76",
      "blockHash": "0x3b28768f7b510e58e074c6a6aa08f42df00da3c8b09fd000eff4ba5447839c28",
      "blockNumber": "0x89af73",
      "gasUsed": "0x14666",
      "effectiveGasPrice": "0x49f32e",
      "from": "0x8fe205351ade3b32245ffcba2f58141fa3b0a20f",
      "to": "0x543db8ceff3de7be64ea774b9da2c3a315ea9736",
      "contractAddress": null
    },
    {
      "status": "0x1",
      "cumulativeGasUsed": "0xe021e9",
      "logs": [],
      "logsBloom": "0x00000000000000000000000000000000000000000000000000000000000000000000000000000000000000000000000000000000000000000000000000000000000000000000000000000000000000000000000000000000000000000000000000000000000000000000000000000000000000000000000000000000000000000000000000000000000000000000000000000000000000000000000000000000000000000000000000000000000000000000000000000000000000000000000000000000000000000000000000000000000000000000000000000000000000000000000000000000000000000000000000000000000000000000000000000000",
      "type": "0x2",
      "transactionHash": "0xcca316495816b9f040a9dcd147e011e5ba0722ad7ba89ec3b5534faab2afd09c",
      "transactionIndex": "0x77",
      "blockHash": "0x3b28768f7b510e58e074c6a6aa08f42df00da3c8b09fd000eff4ba5447839c28",
      "blockNumber": "0x89af73",
      "gasUsed": "0x858a",
      "effectiveGasPrice": "0x49f32e",
      "from": "0x8fe205351ade3b32245ffcba2f58141fa3b0a20f",
      "to": "0x543db8ceff3de7be64ea774b9da2c3a315ea9736",
      "contractAddress": null
    }
  ],
  "libraries": [],
  "pending": [],
  "returns": {},
  "timestamp": 1755668209,
  "chain": 11155111,
  "commit": "d65daa6"
}